{
	"data": {
		"bytecode": {
			"linkReferences": {},
			"object": "608060405234801561001057600080fd5b50610302806100206000396000f3fe608060405234801561001057600080fd5b50600436106100415760003560e01c806322cddfc2146100465780634270349414610064578063dbec04bc14610094575b600080fd5b61004e6100c4565b60405161005b91906101b9565b60405180910390f35b61007e6004803603810190610079919061020f565b610141565b60405161008b91906101b9565b60405180910390f35b6100ae60048036038101906100a99190610275565b61017b565b6040516100bb91906102b1565b60405180910390f35b60006100d06002610141565b6100d957600080fd5b6100e36003610141565b6100ec57600080fd5b6100f66004610141565b1561010057600080fd5b61010a600f610141565b1561011457600080fd5b61011e6017610141565b61012757600080fd5b6101316065610141565b61013a57600080fd5b6001905090565b6000600190506001600283040160025b81811015610174578084066101695760009250610174565b600181019050610151565b5050919050565b6000805b828110156101985760028201915060018101905061017f565b50919050565b60008115159050919050565b6101b38161019e565b82525050565b60006020820190506101ce60008301846101aa565b92915050565b600080fd5b6000819050919050565b6101ec816101d9565b81146101f757600080fd5b50565b600081359050610209816101e3565b92915050565b600060208284031215610225576102246101d4565b5b6000610233848285016101fa565b91505092915050565b600060ff82169050919050565b6102528161023c565b811461025d57600080fd5b50565b60008135905061026f81610249565b92915050565b60006020828403121561028b5761028a6101d4565b5b600061029984828501610260565b91505092915050565b6102ab816101d9565b82525050565b60006020820190506102c660008301846102a2565b9291505056fea264697066735822122067a381e8ce74f0d5e3b433e5238b23bee541306f1b8b429e5bee8d3cdb551d2564736f6c63430008110033",
			"opcodes": "PUSH1 0x80 PUSH1 0x40 MSTORE CALLVALUE DUP1 ISZERO PUSH2 0x10 JUMPI PUSH1 0x0 DUP1 REVERT JUMPDEST POP PUSH2 0x302 DUP1 PUSH2 0x20 PUSH1 0x0 CODECOPY PUSH1 0x0 RETURN INVALID PUSH1 0x80 PUSH1 0x40 MSTORE CALLVALUE DUP1 ISZERO PUSH2 0x10 JUMPI PUSH1 0x0 DUP1 REVERT JUMPDEST POP PUSH1 0x4 CALLDATASIZE LT PUSH2 0x41 JUMPI PUSH1 0x0 CALLDATALOAD PUSH1 0xE0 SHR DUP1 PUSH4 0x22CDDFC2 EQ PUSH2 0x46 JUMPI DUP1 PUSH4 0x42703494 EQ PUSH2 0x64 JUMPI DUP1 PUSH4 0xDBEC04BC EQ PUSH2 0x94 JUMPI JUMPDEST PUSH1 0x0 DUP1 REVERT JUMPDEST PUSH2 0x4E PUSH2 0xC4 JUMP JUMPDEST PUSH1 0x40 MLOAD PUSH2 0x5B SWAP2 SWAP1 PUSH2 0x1B9 JUMP JUMPDEST PUSH1 0x40 MLOAD DUP1 SWAP2 SUB SWAP1 RETURN JUMPDEST PUSH2 0x7E PUSH1 0x4 DUP1 CALLDATASIZE SUB DUP2 ADD SWAP1 PUSH2 0x79 SWAP2 SWAP1 PUSH2 0x20F JUMP JUMPDEST PUSH2 0x141 JUMP JUMPDEST PUSH1 0x40 MLOAD PUSH2 0x8B SWAP2 SWAP1 PUSH2 0x1B9 JUMP JUMPDEST PUSH1 0x40 MLOAD DUP1 SWAP2 SUB SWAP1 RETURN JUMPDEST PUSH2 0xAE PUSH1 0x4 DUP1 CALLDATASIZE SUB DUP2 ADD SWAP1 PUSH2 0xA9 SWAP2 SWAP1 PUSH2 0x275 JUMP JUMPDEST PUSH2 0x17B JUMP JUMPDEST PUSH1 0x40 MLOAD PUSH2 0xBB SWAP2 SWAP1 PUSH2 0x2B1 JUMP JUMPDEST PUSH1 0x40 MLOAD DUP1 SWAP2 SUB SWAP1 RETURN JUMPDEST PUSH1 0x0 PUSH2 0xD0 PUSH1 0x2 PUSH2 0x141 JUMP JUMPDEST PUSH2 0xD9 JUMPI PUSH1 0x0 DUP1 REVERT JUMPDEST PUSH2 0xE3 PUSH1 0x3 PUSH2 0x141 JUMP JUMPDEST PUSH2 0xEC JUMPI PUSH1 0x0 DUP1 REVERT JUMPDEST PUSH2 0xF6 PUSH1 0x4 PUSH2 0x141 JUMP JUMPDEST ISZERO PUSH2 0x100 JUMPI PUSH1 0x0 DUP1 REVERT JUMPDEST PUSH2 0x10A PUSH1 0xF PUSH2 0x141 JUMP JUMPDEST ISZERO PUSH2 0x114 JUMPI PUSH1 0x0 DUP1 REVERT JUMPDEST PUSH2 0x11E PUSH1 0x17 PUSH2 0x141 JUMP JUMPDEST PUSH2 0x127 JUMPI PUSH1 0x0 DUP1 REVERT JUMPDEST PUSH2 0x131 PUSH1 0x65 PUSH2 0x141 JUMP JUMPDEST PUSH2 0x13A JUMPI PUSH1 0x0 DUP1 REVERT JUMPDEST PUSH1 0x1 SWAP1 POP SWAP1 JUMP JUMPDEST PUSH1 0x0 PUSH1 0x1 SWAP1 POP PUSH1 0x1 PUSH1 0x2 DUP4 DIV ADD PUSH1 0x2 JUMPDEST DUP2 DUP2 LT ISZERO PUSH2 0x174 JUMPI DUP1 DUP5 MOD PUSH2 0x169 JUMPI PUSH1 0x0 SWAP3 POP PUSH2 0x174 JUMP JUMPDEST PUSH1 0x1 DUP2 ADD SWAP1 POP PUSH2 0x151 JUMP JUMPDEST POP POP SWAP2 SWAP1 POP JUMP JUMPDEST PUSH1 0x0 DUP1 JUMPDEST DUP3 DUP2 LT ISZERO PUSH2 0x198 JUMPI PUSH1 0x2 DUP3 ADD SWAP2 POP PUSH1 0x1 DUP2 ADD SWAP1 POP PUSH2 0x17F JUMP JUMPDEST POP SWAP2 SWAP1 POP JUMP JUMPDEST PUSH1 0x0 DUP2 ISZERO ISZERO SWAP1 POP SWAP2 SWAP1 POP JUMP JUMPDEST PUSH2 0x1B3 DUP2 PUSH2 0x19E JUMP JUMPDEST DUP3 MSTORE POP POP JUMP JUMPDEST PUSH1 0x0 PUSH1 0x20 DUP3 ADD SWAP1 POP PUSH2 0x1CE PUSH1 0x0 DUP4 ADD DUP5 PUSH2 0x1AA JUMP JUMPDEST SWAP3 SWAP2 POP POP JUMP JUMPDEST PUSH1 0x0 DUP1 REVERT JUMPDEST PUSH1 0x0 DUP2 SWAP1 POP SWAP2 SWAP1 POP JUMP JUMPDEST PUSH2 0x1EC DUP2 PUSH2 0x1D9 JUMP JUMPDEST DUP2 EQ PUSH2 0x1F7 JUMPI PUSH1 0x0 DUP1 REVERT JUMPDEST POP JUMP JUMPDEST PUSH1 0x0 DUP2 CALLDATALOAD SWAP1 POP PUSH2 0x209 DUP2 PUSH2 0x1E3 JUMP JUMPDEST SWAP3 SWAP2 POP POP JUMP JUMPDEST PUSH1 0x0 PUSH1 0x20 DUP3 DUP5 SUB SLT ISZERO PUSH2 0x225 JUMPI PUSH2 0x224 PUSH2 0x1D4 JUMP JUMPDEST JUMPDEST PUSH1 0x0 PUSH2 0x233 DUP5 DUP3 DUP6 ADD PUSH2 0x1FA JUMP JUMPDEST SWAP2 POP POP SWAP3 SWAP2 POP POP JUMP JUMPDEST PUSH1 0x0 PUSH1 0xFF DUP3 AND SWAP1 POP SWAP2 SWAP1 POP JUMP JUMPDEST PUSH2 0x252 DUP2 PUSH2 0x23C JUMP JUMPDEST DUP2 EQ PUSH2 0x25D JUMPI PUSH1 0x0 DUP1 REVERT JUMPDEST POP JUMP JUMPDEST PUSH1 0x0 DUP2 CALLDATALOAD SWAP1 POP PUSH2 0x26F DUP2 PUSH2 0x249 JUMP JUMPDEST SWAP3 SWAP2 POP POP JUMP JUMPDEST PUSH1 0x0 PUSH1 0x20 DUP3 DUP5 SUB SLT ISZERO PUSH2 0x28B JUMPI PUSH2 0x28A PUSH2 0x1D4 JUMP JUMPDEST JUMPDEST PUSH1 0x0 PUSH2 0x299 DUP5 DUP3 DUP6 ADD PUSH2 0x260 JUMP JUMPDEST SWAP2 POP POP SWAP3 SWAP2 POP POP JUMP JUMPDEST PUSH2 0x2AB DUP2 PUSH2 0x1D9 JUMP JUMPDEST DUP3 MSTORE POP POP JUMP JUMPDEST PUSH1 0x0 PUSH1 0x20 DUP3 ADD SWAP1 POP PUSH2 0x2C6 PUSH1 0x0 DUP4 ADD DUP5 PUSH2 0x2A2 JUMP JUMPDEST SWAP3 SWAP2 POP POP JUMP INVALID LOG2 PUSH5 0x6970667358 0x22 SLT KECCAK256 PUSH8 0xA381E8CE74F0D5E3 0xB4 CALLER 0xE5 0x23 DUP12 0x23 0xBE 0xE5 COINBASE ADDRESS PUSH16 0x1B8B429E5BEE8D3CDB551D2564736F6C PUSH4 0x43000811 STOP CALLER "
		},
		"gasEstimates": {
			"creation": {
				"codeDepositCost": "154000",
				"executionCost": "202",
				"totalCost": "154202"
			},
			"external": {
				"forLoopYul(uint8)": "infinite",
				"isPrime(uint256)": "infinite",
				"testPrime()": "infinite"
			}
		},
		"methodIdentifiers": {
			"forLoopYul(uint8)": "dbec04bc",
			"isPrime(uint256)": "42703494",
			"testPrime()": "22cddfc2"
		}
	},
	"abi": [
		{
			"inputs": [
				{
					"internalType": "uint8",
					"name": "x",
					"type": "uint8"
				}
			],
			"name": "forLoopYul",
			"outputs": [
				{
					"internalType": "uint256",
					"name": "result",
					"type": "uint256"
				}
			],
			"stateMutability": "pure",
			"type": "function"
		},
		{
			"inputs": [
				{
					"internalType": "uint256",
					"name": "x",
					"type": "uint256"
				}
			],
			"name": "isPrime",
			"outputs": [
				{
					"internalType": "bool",
					"name": "p",
					"type": "bool"
				}
			],
			"stateMutability": "pure",
			"type": "function"
		},
		{
			"inputs": [],
			"name": "testPrime",
			"outputs": [
				{
					"internalType": "bool",
					"name": "",
					"type": "bool"
				}
			],
			"stateMutability": "pure",
			"type": "function"
		}
	]
}