{
	"data": {
		"bytecode": {
			"linkReferences": {},
			"object": "608060405234801561001057600080fd5b5061041e806100206000396000f3fe608060405234801561001057600080fd5b50600436106100935760003560e01c806341f563e31161006657806341f563e314610136578063584301da146101545780635f0d90c614610172578063c6c16a5d14610190578063fc27de12146101ae57610093565b806326b2302014610098578063336c96f8146100c8578063392f69d4146100e65780633ced224a14610106575b600080fd5b6100b260048036038101906100ad91906102f8565b6101cc565b6040516100bf9190610347565b60405180910390f35b6100d06101eb565b6040516100dd9190610347565b60405180910390f35b6100ee6101ff565b6040516100fd9392919061037b565b60405180910390f35b610120600480360381019061011b91906102f8565b61023f565b60405161012d91906103cd565b60405180910390f35b61013e610253565b60405161014b9190610347565b60405180910390f35b61015c610268565b6040516101699190610347565b60405180910390f35b61017a61027e565b6040516101879190610347565b60405180910390f35b610198610293565b6040516101a59190610347565b60405180910390f35b6101b66102a9565b6040516101c39190610347565b60405180910390f35b6000818310156101da578190505b8183106101e5578290505b92915050565b60006001905060006101fc57600290505b90565b6000806000807fffffffffffffffffffffffffffffffffffffffffffffffffffffffffffffffff60001b9050600219935060001992508019915050909192565b600081830361024d57600190505b92915050565b60006002905060021561026557600190505b90565b6000600190506002191561027b57600290505b90565b60006001905060001561029057600290505b90565b600060019050600019156102a657600290505b90565b60006001905060026102ba57600290505b90565b600080fd5b6000819050919050565b6102d5816102c2565b81146102e057600080fd5b50565b6000813590506102f2816102cc565b92915050565b6000806040838503121561030f5761030e6102bd565b5b600061031d858286016102e3565b925050602061032e858286016102e3565b9150509250929050565b610341816102c2565b82525050565b600060208201905061035c6000830184610338565b92915050565b6000819050919050565b61037581610362565b82525050565b6000606082019050610390600083018661036c565b61039d602083018561036c565b6103aa604083018461036c565b949350505050565b60008115159050919050565b6103c7816103b2565b82525050565b60006020820190506103e260008301846103be565b9291505056fea26469706673582212208745686526d4c1972af60b59fa81a8139aaa87f5d043b3bf2372b5c69c8acda364736f6c63430008110033",
			"opcodes": "PUSH1 0x80 PUSH1 0x40 MSTORE CALLVALUE DUP1 ISZERO PUSH2 0x10 JUMPI PUSH1 0x0 DUP1 REVERT JUMPDEST POP PUSH2 0x41E DUP1 PUSH2 0x20 PUSH1 0x0 CODECOPY PUSH1 0x0 RETURN INVALID PUSH1 0x80 PUSH1 0x40 MSTORE CALLVALUE DUP1 ISZERO PUSH2 0x10 JUMPI PUSH1 0x0 DUP1 REVERT JUMPDEST POP PUSH1 0x4 CALLDATASIZE LT PUSH2 0x93 JUMPI PUSH1 0x0 CALLDATALOAD PUSH1 0xE0 SHR DUP1 PUSH4 0x41F563E3 GT PUSH2 0x66 JUMPI DUP1 PUSH4 0x41F563E3 EQ PUSH2 0x136 JUMPI DUP1 PUSH4 0x584301DA EQ PUSH2 0x154 JUMPI DUP1 PUSH4 0x5F0D90C6 EQ PUSH2 0x172 JUMPI DUP1 PUSH4 0xC6C16A5D EQ PUSH2 0x190 JUMPI DUP1 PUSH4 0xFC27DE12 EQ PUSH2 0x1AE JUMPI PUSH2 0x93 JUMP JUMPDEST DUP1 PUSH4 0x26B23020 EQ PUSH2 0x98 JUMPI DUP1 PUSH4 0x336C96F8 EQ PUSH2 0xC8 JUMPI DUP1 PUSH4 0x392F69D4 EQ PUSH2 0xE6 JUMPI DUP1 PUSH4 0x3CED224A EQ PUSH2 0x106 JUMPI JUMPDEST PUSH1 0x0 DUP1 REVERT JUMPDEST PUSH2 0xB2 PUSH1 0x4 DUP1 CALLDATASIZE SUB DUP2 ADD SWAP1 PUSH2 0xAD SWAP2 SWAP1 PUSH2 0x2F8 JUMP JUMPDEST PUSH2 0x1CC JUMP JUMPDEST PUSH1 0x40 MLOAD PUSH2 0xBF SWAP2 SWAP1 PUSH2 0x347 JUMP JUMPDEST PUSH1 0x40 MLOAD DUP1 SWAP2 SUB SWAP1 RETURN JUMPDEST PUSH2 0xD0 PUSH2 0x1EB JUMP JUMPDEST PUSH1 0x40 MLOAD PUSH2 0xDD SWAP2 SWAP1 PUSH2 0x347 JUMP JUMPDEST PUSH1 0x40 MLOAD DUP1 SWAP2 SUB SWAP1 RETURN JUMPDEST PUSH2 0xEE PUSH2 0x1FF JUMP JUMPDEST PUSH1 0x40 MLOAD PUSH2 0xFD SWAP4 SWAP3 SWAP2 SWAP1 PUSH2 0x37B JUMP JUMPDEST PUSH1 0x40 MLOAD DUP1 SWAP2 SUB SWAP1 RETURN JUMPDEST PUSH2 0x120 PUSH1 0x4 DUP1 CALLDATASIZE SUB DUP2 ADD SWAP1 PUSH2 0x11B SWAP2 SWAP1 PUSH2 0x2F8 JUMP JUMPDEST PUSH2 0x23F JUMP JUMPDEST PUSH1 0x40 MLOAD PUSH2 0x12D SWAP2 SWAP1 PUSH2 0x3CD JUMP JUMPDEST PUSH1 0x40 MLOAD DUP1 SWAP2 SUB SWAP1 RETURN JUMPDEST PUSH2 0x13E PUSH2 0x253 JUMP JUMPDEST PUSH1 0x40 MLOAD PUSH2 0x14B SWAP2 SWAP1 PUSH2 0x347 JUMP JUMPDEST PUSH1 0x40 MLOAD DUP1 SWAP2 SUB SWAP1 RETURN JUMPDEST PUSH2 0x15C PUSH2 0x268 JUMP JUMPDEST PUSH1 0x40 MLOAD PUSH2 0x169 SWAP2 SWAP1 PUSH2 0x347 JUMP JUMPDEST PUSH1 0x40 MLOAD DUP1 SWAP2 SUB SWAP1 RETURN JUMPDEST PUSH2 0x17A PUSH2 0x27E JUMP JUMPDEST PUSH1 0x40 MLOAD PUSH2 0x187 SWAP2 SWAP1 PUSH2 0x347 JUMP JUMPDEST PUSH1 0x40 MLOAD DUP1 SWAP2 SUB SWAP1 RETURN JUMPDEST PUSH2 0x198 PUSH2 0x293 JUMP JUMPDEST PUSH1 0x40 MLOAD PUSH2 0x1A5 SWAP2 SWAP1 PUSH2 0x347 JUMP JUMPDEST PUSH1 0x40 MLOAD DUP1 SWAP2 SUB SWAP1 RETURN JUMPDEST PUSH2 0x1B6 PUSH2 0x2A9 JUMP JUMPDEST PUSH1 0x40 MLOAD PUSH2 0x1C3 SWAP2 SWAP1 PUSH2 0x347 JUMP JUMPDEST PUSH1 0x40 MLOAD DUP1 SWAP2 SUB SWAP1 RETURN JUMPDEST PUSH1 0x0 DUP2 DUP4 LT ISZERO PUSH2 0x1DA JUMPI DUP2 SWAP1 POP JUMPDEST DUP2 DUP4 LT PUSH2 0x1E5 JUMPI DUP3 SWAP1 POP JUMPDEST SWAP3 SWAP2 POP POP JUMP JUMPDEST PUSH1 0x0 PUSH1 0x1 SWAP1 POP PUSH1 0x0 PUSH2 0x1FC JUMPI PUSH1 0x2 SWAP1 POP JUMPDEST SWAP1 JUMP JUMPDEST PUSH1 0x0 DUP1 PUSH1 0x0 DUP1 PUSH32 0xFFFFFFFFFFFFFFFFFFFFFFFFFFFFFFFFFFFFFFFFFFFFFFFFFFFFFFFFFFFFFFFF PUSH1 0x0 SHL SWAP1 POP PUSH1 0x2 NOT SWAP4 POP PUSH1 0x0 NOT SWAP3 POP DUP1 NOT SWAP2 POP POP SWAP1 SWAP2 SWAP3 JUMP JUMPDEST PUSH1 0x0 DUP2 DUP4 SUB PUSH2 0x24D JUMPI PUSH1 0x1 SWAP1 POP JUMPDEST SWAP3 SWAP2 POP POP JUMP JUMPDEST PUSH1 0x0 PUSH1 0x2 SWAP1 POP PUSH1 0x2 ISZERO PUSH2 0x265 JUMPI PUSH1 0x1 SWAP1 POP JUMPDEST SWAP1 JUMP JUMPDEST PUSH1 0x0 PUSH1 0x1 SWAP1 POP PUSH1 0x2 NOT ISZERO PUSH2 0x27B JUMPI PUSH1 0x2 SWAP1 POP JUMPDEST SWAP1 JUMP JUMPDEST PUSH1 0x0 PUSH1 0x1 SWAP1 POP PUSH1 0x0 ISZERO PUSH2 0x290 JUMPI PUSH1 0x2 SWAP1 POP JUMPDEST SWAP1 JUMP JUMPDEST PUSH1 0x0 PUSH1 0x1 SWAP1 POP PUSH1 0x0 NOT ISZERO PUSH2 0x2A6 JUMPI PUSH1 0x2 SWAP1 POP JUMPDEST SWAP1 JUMP JUMPDEST PUSH1 0x0 PUSH1 0x1 SWAP1 POP PUSH1 0x2 PUSH2 0x2BA JUMPI PUSH1 0x2 SWAP1 POP JUMPDEST SWAP1 JUMP JUMPDEST PUSH1 0x0 DUP1 REVERT JUMPDEST PUSH1 0x0 DUP2 SWAP1 POP SWAP2 SWAP1 POP JUMP JUMPDEST PUSH2 0x2D5 DUP2 PUSH2 0x2C2 JUMP JUMPDEST DUP2 EQ PUSH2 0x2E0 JUMPI PUSH1 0x0 DUP1 REVERT JUMPDEST POP JUMP JUMPDEST PUSH1 0x0 DUP2 CALLDATALOAD SWAP1 POP PUSH2 0x2F2 DUP2 PUSH2 0x2CC JUMP JUMPDEST SWAP3 SWAP2 POP POP JUMP JUMPDEST PUSH1 0x0 DUP1 PUSH1 0x40 DUP4 DUP6 SUB SLT ISZERO PUSH2 0x30F JUMPI PUSH2 0x30E PUSH2 0x2BD JUMP JUMPDEST JUMPDEST PUSH1 0x0 PUSH2 0x31D DUP6 DUP3 DUP7 ADD PUSH2 0x2E3 JUMP JUMPDEST SWAP3 POP POP PUSH1 0x20 PUSH2 0x32E DUP6 DUP3 DUP7 ADD PUSH2 0x2E3 JUMP JUMPDEST SWAP2 POP POP SWAP3 POP SWAP3 SWAP1 POP JUMP JUMPDEST PUSH2 0x341 DUP2 PUSH2 0x2C2 JUMP JUMPDEST DUP3 MSTORE POP POP JUMP JUMPDEST PUSH1 0x0 PUSH1 0x20 DUP3 ADD SWAP1 POP PUSH2 0x35C PUSH1 0x0 DUP4 ADD DUP5 PUSH2 0x338 JUMP JUMPDEST SWAP3 SWAP2 POP POP JUMP JUMPDEST PUSH1 0x0 DUP2 SWAP1 POP SWAP2 SWAP1 POP JUMP JUMPDEST PUSH2 0x375 DUP2 PUSH2 0x362 JUMP JUMPDEST DUP3 MSTORE POP POP JUMP JUMPDEST PUSH1 0x0 PUSH1 0x60 DUP3 ADD SWAP1 POP PUSH2 0x390 PUSH1 0x0 DUP4 ADD DUP7 PUSH2 0x36C JUMP JUMPDEST PUSH2 0x39D PUSH1 0x20 DUP4 ADD DUP6 PUSH2 0x36C JUMP JUMPDEST PUSH2 0x3AA PUSH1 0x40 DUP4 ADD DUP5 PUSH2 0x36C JUMP JUMPDEST SWAP5 SWAP4 POP POP POP POP JUMP JUMPDEST PUSH1 0x0 DUP2 ISZERO ISZERO SWAP1 POP SWAP2 SWAP1 POP JUMP JUMPDEST PUSH2 0x3C7 DUP2 PUSH2 0x3B2 JUMP JUMPDEST DUP3 MSTORE POP POP JUMP JUMPDEST PUSH1 0x0 PUSH1 0x20 DUP3 ADD SWAP1 POP PUSH2 0x3E2 PUSH1 0x0 DUP4 ADD DUP5 PUSH2 0x3BE JUMP JUMPDEST SWAP3 SWAP2 POP POP JUMP INVALID LOG2 PUSH5 0x6970667358 0x22 SLT KECCAK256 DUP8 GASLIMIT PUSH9 0x6526D4C1972AF60B59 STATICCALL DUP2 0xA8 SGT SWAP11 0xAA DUP8 CREATE2 0xD0 NUMBER 0xB3 0xBF 0x23 PUSH19 0xB5C69C8ACDA364736F6C634300081100330000 "
		},
		"gasEstimates": {
			"creation": {
				"codeDepositCost": "210800",
				"executionCost": "251",
				"totalCost": "211051"
			},
			"external": {
				"bitFlipDemo()": "infinite",
				"getMax(uint256,uint256)": "infinite",
				"isEqual(uint256,uint256)": "infinite",
				"isFalsy()": "401",
				"isTruthy()": "365",
				"negation()": "385",
				"safeNegation()": "442",
				"unsafe1Negation()": "434",
				"unsafe2Negation()": "390"
			}
		},
		"methodIdentifiers": {
			"bitFlipDemo()": "392f69d4",
			"getMax(uint256,uint256)": "26b23020",
			"isEqual(uint256,uint256)": "3ced224a",
			"isFalsy()": "5f0d90c6",
			"isTruthy()": "41f563e3",
			"negation()": "336c96f8",
			"safeNegation()": "fc27de12",
			"unsafe1Negation()": "c6c16a5d",
			"unsafe2Negation()": "584301da"
		}
	},
	"abi": [
		{
			"inputs": [],
			"name": "bitFlipDemo",
			"outputs": [
				{
					"internalType": "bytes32",
					"name": "result1",
					"type": "bytes32"
				},
				{
					"internalType": "bytes32",
					"name": "result2",
					"type": "bytes32"
				},
				{
					"internalType": "bytes32",
					"name": "result3",
					"type": "bytes32"
				}
			],
			"stateMutability": "pure",
			"type": "function"
		},
		{
			"inputs": [
				{
					"internalType": "uint256",
					"name": "x",
					"type": "uint256"
				},
				{
					"internalType": "uint256",
					"name": "y",
					"type": "uint256"
				}
			],
			"name": "getMax",
			"outputs": [
				{
					"internalType": "uint256",
					"name": "max",
					"type": "uint256"
				}
			],
			"stateMutability": "pure",
			"type": "function"
		},
		{
			"inputs": [
				{
					"internalType": "uint256",
					"name": "x",
					"type": "uint256"
				},
				{
					"internalType": "uint256",
					"name": "y",
					"type": "uint256"
				}
			],
			"name": "isEqual",
			"outputs": [
				{
					"internalType": "bool",
					"name": "result",
					"type": "bool"
				}
			],
			"stateMutability": "pure",
			"type": "function"
		},
		{
			"inputs": [],
			"name": "isFalsy",
			"outputs": [
				{
					"internalType": "uint256",
					"name": "result",
					"type": "uint256"
				}
			],
			"stateMutability": "pure",
			"type": "function"
		},
		{
			"inputs": [],
			"name": "isTruthy",
			"outputs": [
				{
					"internalType": "uint256",
					"name": "result",
					"type": "uint256"
				}
			],
			"stateMutability": "pure",
			"type": "function"
		},
		{
			"inputs": [],
			"name": "negation",
			"outputs": [
				{
					"internalType": "uint256",
					"name": "result",
					"type": "uint256"
				}
			],
			"stateMutability": "pure",
			"type": "function"
		},
		{
			"inputs": [],
			"name": "safeNegation",
			"outputs": [
				{
					"internalType": "uint256",
					"name": "result",
					"type": "uint256"
				}
			],
			"stateMutability": "pure",
			"type": "function"
		},
		{
			"inputs": [],
			"name": "unsafe1Negation",
			"outputs": [
				{
					"internalType": "uint256",
					"name": "result",
					"type": "uint256"
				}
			],
			"stateMutability": "pure",
			"type": "function"
		},
		{
			"inputs": [],
			"name": "unsafe2Negation",
			"outputs": [
				{
					"internalType": "uint256",
					"name": "result",
					"type": "uint256"
				}
			],
			"stateMutability": "pure",
			"type": "function"
		}
	]
}