{
	"StorageBasics.sol": {
		"StorageBasics": {
			"abi": [
				{
					"inputs": [
						{
							"internalType": "uint256",
							"name": "slot",
							"type": "uint256"
						}
					],
					"name": "getVariable",
					"outputs": [
						{
							"internalType": "bytes32",
							"name": "res",
							"type": "bytes32"
						}
					],
					"stateMutability": "view",
					"type": "function"
				},
				{
					"inputs": [],
					"name": "p",
					"outputs": [
						{
							"internalType": "uint256",
							"name": "",
							"type": "uint256"
						}
					],
					"stateMutability": "view",
					"type": "function"
				},
				{
					"inputs": [],
					"name": "returnSlot",
					"outputs": [
						{
							"internalType": "uint256",
							"name": "res",
							"type": "uint256"
						}
					],
					"stateMutability": "pure",
					"type": "function"
				},
				{
					"inputs": [
						{
							"internalType": "uint256",
							"name": "slot",
							"type": "uint256"
						},
						{
							"internalType": "uint256",
							"name": "value",
							"type": "uint256"
						}
					],
					"name": "setVariable",
					"outputs": [],
					"stateMutability": "nonpayable",
					"type": "function"
				},
				{
					"inputs": [],
					"name": "x",
					"outputs": [
						{
							"internalType": "uint256",
							"name": "",
							"type": "uint256"
						}
					],
					"stateMutability": "view",
					"type": "function"
				},
				{
					"inputs": [],
					"name": "y",
					"outputs": [
						{
							"internalType": "uint256",
							"name": "",
							"type": "uint256"
						}
					],
					"stateMutability": "view",
					"type": "function"
				},
				{
					"inputs": [],
					"name": "z",
					"outputs": [
						{
							"internalType": "uint256",
							"name": "",
							"type": "uint256"
						}
					],
					"stateMutability": "view",
					"type": "function"
				}
			],
			"devdoc": {
				"kind": "dev",
				"methods": {},
				"version": 1
			},
			"evm": {
				"assembly": "    /* \"StorageBasics.sol\":61:588  contract StorageBasics {... */\n  mstore(0x40, 0x80)\n    /* \"StorageBasics.sol\":109:110  2 */\n  0x02\n    /* \"StorageBasics.sol\":90:110  uint256 public x = 2 */\n  0x00\n  sstore\n    /* \"StorageBasics.sol\":135:137  13 */\n  0x0d\n    /* \"StorageBasics.sol\":116:137  uint256 public y = 13 */\n  0x01\n  sstore\n    /* \"StorageBasics.sol\":162:164  54 */\n  0x36\n    /* \"StorageBasics.sol\":143:164  uint256 public z = 54 */\n  0x02\n  sstore\n    /* \"StorageBasics.sol\":61:588  contract StorageBasics {... */\n  callvalue\n  dup1\n  iszero\n  tag_1\n  jumpi\n  0x00\n  dup1\n  revert\ntag_1:\n  pop\n  dataSize(sub_0)\n  dup1\n  dataOffset(sub_0)\n  0x00\n  codecopy\n  0x00\n  return\nstop\n\nsub_0: assembly {\n        /* \"StorageBasics.sol\":61:588  contract StorageBasics {... */\n      mstore(0x40, 0x80)\n      callvalue\n      dup1\n      iszero\n      tag_1\n      jumpi\n      0x00\n      dup1\n      revert\n    tag_1:\n      pop\n      jumpi(tag_2, lt(calldatasize, 0x04))\n      shr(0xe0, calldataload(0x00))\n      dup1\n      0x9ae8886a\n      gt\n      tag_10\n      jumpi\n      dup1\n      0x9ae8886a\n      eq\n      tag_6\n      jumpi\n      dup1\n      0xa56dfe4a\n      eq\n      tag_7\n      jumpi\n      dup1\n      0xc5d7802e\n      eq\n      tag_8\n      jumpi\n      dup1\n      0xd7146fc7\n      eq\n      tag_9\n      jumpi\n      jump(tag_2)\n    tag_10:\n      dup1\n      0x0b9efd34\n      eq\n      tag_3\n      jumpi\n      dup1\n      0x0c55699c\n      eq\n      tag_4\n      jumpi\n      dup1\n      0x9801168d\n      eq\n      tag_5\n      jumpi\n    tag_2:\n      0x00\n      dup1\n      revert\n        /* \"StorageBasics.sol\":193:329  function getVariable(uint256 slot) external view returns(bytes32 res){... */\n    tag_3:\n      tag_11\n      0x04\n      dup1\n      calldatasize\n      sub\n      dup2\n      add\n      swap1\n      tag_12\n      swap2\n      swap1\n      tag_13\n      jump\t// in\n    tag_12:\n      tag_14\n      jump\t// in\n    tag_11:\n      mload(0x40)\n      tag_15\n      swap2\n      swap1\n      tag_16\n      jump\t// in\n    tag_15:\n      mload(0x40)\n      dup1\n      swap2\n      sub\n      swap1\n      return\n        /* \"StorageBasics.sol\":90:110  uint256 public x = 2 */\n    tag_4:\n      tag_17\n      tag_18\n      jump\t// in\n    tag_17:\n      mload(0x40)\n      tag_19\n      swap2\n      swap1\n      tag_20\n      jump\t// in\n    tag_19:\n      mload(0x40)\n      dup1\n      swap2\n      sub\n      swap1\n      return\n        /* \"StorageBasics.sol\":459:586  function setVariable(uint256 slot, uint256 value) external {... */\n    tag_5:\n      tag_21\n      0x04\n      dup1\n      calldatasize\n      sub\n      dup2\n      add\n      swap1\n      tag_22\n      swap2\n      swap1\n      tag_23\n      jump\t// in\n    tag_22:\n      tag_24\n      jump\t// in\n    tag_21:\n      stop\n        /* \"StorageBasics.sol\":170:186  uint256 public p */\n    tag_6:\n      tag_25\n      tag_26\n      jump\t// in\n    tag_25:\n      mload(0x40)\n      tag_27\n      swap2\n      swap1\n      tag_20\n      jump\t// in\n    tag_27:\n      mload(0x40)\n      dup1\n      swap2\n      sub\n      swap1\n      return\n        /* \"StorageBasics.sol\":116:137  uint256 public y = 13 */\n    tag_7:\n      tag_28\n      tag_29\n      jump\t// in\n    tag_28:\n      mload(0x40)\n      tag_30\n      swap2\n      swap1\n      tag_20\n      jump\t// in\n    tag_30:\n      mload(0x40)\n      dup1\n      swap2\n      sub\n      swap1\n      return\n        /* \"StorageBasics.sol\":143:164  uint256 public z = 54 */\n    tag_8:\n      tag_31\n      tag_32\n      jump\t// in\n    tag_31:\n      mload(0x40)\n      tag_33\n      swap2\n      swap1\n      tag_20\n      jump\t// in\n    tag_33:\n      mload(0x40)\n      dup1\n      swap2\n      sub\n      swap1\n      return\n        /* \"StorageBasics.sol\":335:453  function returnSlot() external pure returns(uint256 res) {... */\n    tag_9:\n      tag_34\n      tag_35\n      jump\t// in\n    tag_34:\n      mload(0x40)\n      tag_36\n      swap2\n      swap1\n      tag_20\n      jump\t// in\n    tag_36:\n      mload(0x40)\n      dup1\n      swap2\n      sub\n      swap1\n      return\n        /* \"StorageBasics.sol\":193:329  function getVariable(uint256 slot) external view returns(bytes32 res){... */\n    tag_14:\n        /* \"StorageBasics.sol\":250:261  bytes32 res */\n      0x00\n        /* \"StorageBasics.sol\":308:312  slot */\n      dup2\n        /* \"StorageBasics.sol\":302:313  sload(slot) */\n      sload\n        /* \"StorageBasics.sol\":295:313  res := sload(slot) */\n      swap1\n      pop\n        /* \"StorageBasics.sol\":193:329  function getVariable(uint256 slot) external view returns(bytes32 res){... */\n      swap2\n      swap1\n      pop\n      jump\t// out\n        /* \"StorageBasics.sol\":90:110  uint256 public x = 2 */\n    tag_18:\n      sload(0x00)\n      dup2\n      jump\t// out\n        /* \"StorageBasics.sol\":459:586  function setVariable(uint256 slot, uint256 value) external {... */\n    tag_24:\n        /* \"StorageBasics.sol\":564:569  value */\n      dup1\n        /* \"StorageBasics.sol\":558:562  slot */\n      dup3\n        /* \"StorageBasics.sol\":551:570  sstore(slot, value) */\n      sstore\n        /* \"StorageBasics.sol\":459:586  function setVariable(uint256 slot, uint256 value) external {... */\n      pop\n      pop\n      jump\t// out\n        /* \"StorageBasics.sol\":170:186  uint256 public p */\n    tag_26:\n      sload(0x03)\n      dup2\n      jump\t// out\n        /* \"StorageBasics.sol\":116:137  uint256 public y = 13 */\n    tag_29:\n      sload(0x01)\n      dup2\n      jump\t// out\n        /* \"StorageBasics.sol\":143:164  uint256 public z = 54 */\n    tag_32:\n      sload(0x02)\n      dup2\n      jump\t// out\n        /* \"StorageBasics.sol\":335:453  function returnSlot() external pure returns(uint256 res) {... */\n    tag_35:\n        /* \"StorageBasics.sol\":379:390  uint256 res */\n      0x00\n        /* \"StorageBasics.sol\":431:437  y.slot */\n      0x01\n        /* \"StorageBasics.sol\":424:437  res := y.slot */\n      swap1\n      pop\n        /* \"StorageBasics.sol\":335:453  function returnSlot() external pure returns(uint256 res) {... */\n      swap1\n      jump\t// out\n        /* \"#utility.yul\":88:205   */\n    tag_41:\n        /* \"#utility.yul\":197:198   */\n      0x00\n        /* \"#utility.yul\":194:195   */\n      dup1\n        /* \"#utility.yul\":187:199   */\n      revert\n        /* \"#utility.yul\":334:411   */\n    tag_43:\n        /* \"#utility.yul\":371:378   */\n      0x00\n        /* \"#utility.yul\":400:405   */\n      dup2\n        /* \"#utility.yul\":389:405   */\n      swap1\n      pop\n        /* \"#utility.yul\":334:411   */\n      swap2\n      swap1\n      pop\n      jump\t// out\n        /* \"#utility.yul\":417:539   */\n    tag_44:\n        /* \"#utility.yul\":490:514   */\n      tag_55\n        /* \"#utility.yul\":508:513   */\n      dup2\n        /* \"#utility.yul\":490:514   */\n      tag_43\n      jump\t// in\n    tag_55:\n        /* \"#utility.yul\":483:488   */\n      dup2\n        /* \"#utility.yul\":480:515   */\n      eq\n        /* \"#utility.yul\":470:533   */\n      tag_56\n      jumpi\n        /* \"#utility.yul\":529:530   */\n      0x00\n        /* \"#utility.yul\":526:527   */\n      dup1\n        /* \"#utility.yul\":519:531   */\n      revert\n        /* \"#utility.yul\":470:533   */\n    tag_56:\n        /* \"#utility.yul\":417:539   */\n      pop\n      jump\t// out\n        /* \"#utility.yul\":545:684   */\n    tag_45:\n        /* \"#utility.yul\":591:596   */\n      0x00\n        /* \"#utility.yul\":629:635   */\n      dup2\n        /* \"#utility.yul\":616:636   */\n      calldataload\n        /* \"#utility.yul\":607:636   */\n      swap1\n      pop\n        /* \"#utility.yul\":645:678   */\n      tag_58\n        /* \"#utility.yul\":672:677   */\n      dup2\n        /* \"#utility.yul\":645:678   */\n      tag_44\n      jump\t// in\n    tag_58:\n        /* \"#utility.yul\":545:684   */\n      swap3\n      swap2\n      pop\n      pop\n      jump\t// out\n        /* \"#utility.yul\":690:1019   */\n    tag_13:\n        /* \"#utility.yul\":749:755   */\n      0x00\n        /* \"#utility.yul\":798:800   */\n      0x20\n        /* \"#utility.yul\":786:795   */\n      dup3\n        /* \"#utility.yul\":777:784   */\n      dup5\n        /* \"#utility.yul\":773:796   */\n      sub\n        /* \"#utility.yul\":769:801   */\n      slt\n        /* \"#utility.yul\":766:885   */\n      iszero\n      tag_60\n      jumpi\n        /* \"#utility.yul\":804:883   */\n      tag_61\n      tag_41\n      jump\t// in\n    tag_61:\n        /* \"#utility.yul\":766:885   */\n    tag_60:\n        /* \"#utility.yul\":924:925   */\n      0x00\n        /* \"#utility.yul\":949:1002   */\n      tag_62\n        /* \"#utility.yul\":994:1001   */\n      dup5\n        /* \"#utility.yul\":985:991   */\n      dup3\n        /* \"#utility.yul\":974:983   */\n      dup6\n        /* \"#utility.yul\":970:992   */\n      add\n        /* \"#utility.yul\":949:1002   */\n      tag_45\n      jump\t// in\n    tag_62:\n        /* \"#utility.yul\":939:1002   */\n      swap2\n      pop\n        /* \"#utility.yul\":895:1012   */\n      pop\n        /* \"#utility.yul\":690:1019   */\n      swap3\n      swap2\n      pop\n      pop\n      jump\t// out\n        /* \"#utility.yul\":1025:1102   */\n    tag_46:\n        /* \"#utility.yul\":1062:1069   */\n      0x00\n        /* \"#utility.yul\":1091:1096   */\n      dup2\n        /* \"#utility.yul\":1080:1096   */\n      swap1\n      pop\n        /* \"#utility.yul\":1025:1102   */\n      swap2\n      swap1\n      pop\n      jump\t// out\n        /* \"#utility.yul\":1108:1226   */\n    tag_47:\n        /* \"#utility.yul\":1195:1219   */\n      tag_65\n        /* \"#utility.yul\":1213:1218   */\n      dup2\n        /* \"#utility.yul\":1195:1219   */\n      tag_46\n      jump\t// in\n    tag_65:\n        /* \"#utility.yul\":1190:1193   */\n      dup3\n        /* \"#utility.yul\":1183:1220   */\n      mstore\n        /* \"#utility.yul\":1108:1226   */\n      pop\n      pop\n      jump\t// out\n        /* \"#utility.yul\":1232:1454   */\n    tag_16:\n        /* \"#utility.yul\":1325:1329   */\n      0x00\n        /* \"#utility.yul\":1363:1365   */\n      0x20\n        /* \"#utility.yul\":1352:1361   */\n      dup3\n        /* \"#utility.yul\":1348:1366   */\n      add\n        /* \"#utility.yul\":1340:1366   */\n      swap1\n      pop\n        /* \"#utility.yul\":1376:1447   */\n      tag_67\n        /* \"#utility.yul\":1444:1445   */\n      0x00\n        /* \"#utility.yul\":1433:1442   */\n      dup4\n        /* \"#utility.yul\":1429:1446   */\n      add\n        /* \"#utility.yul\":1420:1426   */\n      dup5\n        /* \"#utility.yul\":1376:1447   */\n      tag_47\n      jump\t// in\n    tag_67:\n        /* \"#utility.yul\":1232:1454   */\n      swap3\n      swap2\n      pop\n      pop\n      jump\t// out\n        /* \"#utility.yul\":1460:1578   */\n    tag_48:\n        /* \"#utility.yul\":1547:1571   */\n      tag_69\n        /* \"#utility.yul\":1565:1570   */\n      dup2\n        /* \"#utility.yul\":1547:1571   */\n      tag_43\n      jump\t// in\n    tag_69:\n        /* \"#utility.yul\":1542:1545   */\n      dup3\n        /* \"#utility.yul\":1535:1572   */\n      mstore\n        /* \"#utility.yul\":1460:1578   */\n      pop\n      pop\n      jump\t// out\n        /* \"#utility.yul\":1584:1806   */\n    tag_20:\n        /* \"#utility.yul\":1677:1681   */\n      0x00\n        /* \"#utility.yul\":1715:1717   */\n      0x20\n        /* \"#utility.yul\":1704:1713   */\n      dup3\n        /* \"#utility.yul\":1700:1718   */\n      add\n        /* \"#utility.yul\":1692:1718   */\n      swap1\n      pop\n        /* \"#utility.yul\":1728:1799   */\n      tag_71\n        /* \"#utility.yul\":1796:1797   */\n      0x00\n        /* \"#utility.yul\":1785:1794   */\n      dup4\n        /* \"#utility.yul\":1781:1798   */\n      add\n        /* \"#utility.yul\":1772:1778   */\n      dup5\n        /* \"#utility.yul\":1728:1799   */\n      tag_48\n      jump\t// in\n    tag_71:\n        /* \"#utility.yul\":1584:1806   */\n      swap3\n      swap2\n      pop\n      pop\n      jump\t// out\n        /* \"#utility.yul\":1812:2286   */\n    tag_23:\n        /* \"#utility.yul\":1880:1886   */\n      0x00\n        /* \"#utility.yul\":1888:1894   */\n      dup1\n        /* \"#utility.yul\":1937:1939   */\n      0x40\n        /* \"#utility.yul\":1925:1934   */\n      dup4\n        /* \"#utility.yul\":1916:1923   */\n      dup6\n        /* \"#utility.yul\":1912:1935   */\n      sub\n        /* \"#utility.yul\":1908:1940   */\n      slt\n        /* \"#utility.yul\":1905:2024   */\n      iszero\n      tag_73\n      jumpi\n        /* \"#utility.yul\":1943:2022   */\n      tag_74\n      tag_41\n      jump\t// in\n    tag_74:\n        /* \"#utility.yul\":1905:2024   */\n    tag_73:\n        /* \"#utility.yul\":2063:2064   */\n      0x00\n        /* \"#utility.yul\":2088:2141   */\n      tag_75\n        /* \"#utility.yul\":2133:2140   */\n      dup6\n        /* \"#utility.yul\":2124:2130   */\n      dup3\n        /* \"#utility.yul\":2113:2122   */\n      dup7\n        /* \"#utility.yul\":2109:2131   */\n      add\n        /* \"#utility.yul\":2088:2141   */\n      tag_45\n      jump\t// in\n    tag_75:\n        /* \"#utility.yul\":2078:2141   */\n      swap3\n      pop\n        /* \"#utility.yul\":2034:2151   */\n      pop\n        /* \"#utility.yul\":2190:2192   */\n      0x20\n        /* \"#utility.yul\":2216:2269   */\n      tag_76\n        /* \"#utility.yul\":2261:2268   */\n      dup6\n        /* \"#utility.yul\":2252:2258   */\n      dup3\n        /* \"#utility.yul\":2241:2250   */\n      dup7\n        /* \"#utility.yul\":2237:2259   */\n      add\n        /* \"#utility.yul\":2216:2269   */\n      tag_45\n      jump\t// in\n    tag_76:\n        /* \"#utility.yul\":2206:2269   */\n      swap2\n      pop\n        /* \"#utility.yul\":2161:2279   */\n      pop\n        /* \"#utility.yul\":1812:2286   */\n      swap3\n      pop\n      swap3\n      swap1\n      pop\n      jump\t// out\n\n    auxdata: 0xa2646970667358221220420d235393bfe5ec0b4bb55b634f5cda8a2fd96e6f388eeafab8f035bde5ccdd64736f6c63430008110033\n}\n",
				"bytecode": {
					"linkReferences": {},
					"object": "60806040526002600055600d600155603660025534801561001f57600080fd5b506102d38061002f6000396000f3fe608060405234801561001057600080fd5b506004361061007d5760003560e01c80639ae8886a1161005b5780639ae8886a146100ec578063a56dfe4a1461010a578063c5d7802e14610128578063d7146fc7146101465761007d565b80630b9efd34146100825780630c55699c146100b25780639801168d146100d0575b600080fd5b61009c600480360381019061009791906101d2565b610164565b6040516100a99190610218565b60405180910390f35b6100ba61016f565b6040516100c79190610242565b60405180910390f35b6100ea60048036038101906100e5919061025d565b610175565b005b6100f461017c565b6040516101019190610242565b60405180910390f35b610112610182565b60405161011f9190610242565b60405180910390f35b610130610188565b60405161013d9190610242565b60405180910390f35b61014e61018e565b60405161015b9190610242565b60405180910390f35b600081549050919050565b60005481565b8082555050565b60035481565b60015481565b60025481565b60006001905090565b600080fd5b6000819050919050565b6101af8161019c565b81146101ba57600080fd5b50565b6000813590506101cc816101a6565b92915050565b6000602082840312156101e8576101e7610197565b5b60006101f6848285016101bd565b91505092915050565b6000819050919050565b610212816101ff565b82525050565b600060208201905061022d6000830184610209565b92915050565b61023c8161019c565b82525050565b60006020820190506102576000830184610233565b92915050565b6000806040838503121561027457610273610197565b5b6000610282858286016101bd565b9250506020610293858286016101bd565b915050925092905056fea2646970667358221220420d235393bfe5ec0b4bb55b634f5cda8a2fd96e6f388eeafab8f035bde5ccdd64736f6c63430008110033",
					"opcodes": "PUSH1 0x80 PUSH1 0x40 MSTORE PUSH1 0x2 PUSH1 0x0 SSTORE PUSH1 0xD PUSH1 0x1 SSTORE PUSH1 0x36 PUSH1 0x2 SSTORE CALLVALUE DUP1 ISZERO PUSH2 0x1F JUMPI PUSH1 0x0 DUP1 REVERT JUMPDEST POP PUSH2 0x2D3 DUP1 PUSH2 0x2F PUSH1 0x0 CODECOPY PUSH1 0x0 RETURN INVALID PUSH1 0x80 PUSH1 0x40 MSTORE CALLVALUE DUP1 ISZERO PUSH2 0x10 JUMPI PUSH1 0x0 DUP1 REVERT JUMPDEST POP PUSH1 0x4 CALLDATASIZE LT PUSH2 0x7D JUMPI PUSH1 0x0 CALLDATALOAD PUSH1 0xE0 SHR DUP1 PUSH4 0x9AE8886A GT PUSH2 0x5B JUMPI DUP1 PUSH4 0x9AE8886A EQ PUSH2 0xEC JUMPI DUP1 PUSH4 0xA56DFE4A EQ PUSH2 0x10A JUMPI DUP1 PUSH4 0xC5D7802E EQ PUSH2 0x128 JUMPI DUP1 PUSH4 0xD7146FC7 EQ PUSH2 0x146 JUMPI PUSH2 0x7D JUMP JUMPDEST DUP1 PUSH4 0xB9EFD34 EQ PUSH2 0x82 JUMPI DUP1 PUSH4 0xC55699C EQ PUSH2 0xB2 JUMPI DUP1 PUSH4 0x9801168D EQ PUSH2 0xD0 JUMPI JUMPDEST PUSH1 0x0 DUP1 REVERT JUMPDEST PUSH2 0x9C PUSH1 0x4 DUP1 CALLDATASIZE SUB DUP2 ADD SWAP1 PUSH2 0x97 SWAP2 SWAP1 PUSH2 0x1D2 JUMP JUMPDEST PUSH2 0x164 JUMP JUMPDEST PUSH1 0x40 MLOAD PUSH2 0xA9 SWAP2 SWAP1 PUSH2 0x218 JUMP JUMPDEST PUSH1 0x40 MLOAD DUP1 SWAP2 SUB SWAP1 RETURN JUMPDEST PUSH2 0xBA PUSH2 0x16F JUMP JUMPDEST PUSH1 0x40 MLOAD PUSH2 0xC7 SWAP2 SWAP1 PUSH2 0x242 JUMP JUMPDEST PUSH1 0x40 MLOAD DUP1 SWAP2 SUB SWAP1 RETURN JUMPDEST PUSH2 0xEA PUSH1 0x4 DUP1 CALLDATASIZE SUB DUP2 ADD SWAP1 PUSH2 0xE5 SWAP2 SWAP1 PUSH2 0x25D JUMP JUMPDEST PUSH2 0x175 JUMP JUMPDEST STOP JUMPDEST PUSH2 0xF4 PUSH2 0x17C JUMP JUMPDEST PUSH1 0x40 MLOAD PUSH2 0x101 SWAP2 SWAP1 PUSH2 0x242 JUMP JUMPDEST PUSH1 0x40 MLOAD DUP1 SWAP2 SUB SWAP1 RETURN JUMPDEST PUSH2 0x112 PUSH2 0x182 JUMP JUMPDEST PUSH1 0x40 MLOAD PUSH2 0x11F SWAP2 SWAP1 PUSH2 0x242 JUMP JUMPDEST PUSH1 0x40 MLOAD DUP1 SWAP2 SUB SWAP1 RETURN JUMPDEST PUSH2 0x130 PUSH2 0x188 JUMP JUMPDEST PUSH1 0x40 MLOAD PUSH2 0x13D SWAP2 SWAP1 PUSH2 0x242 JUMP JUMPDEST PUSH1 0x40 MLOAD DUP1 SWAP2 SUB SWAP1 RETURN JUMPDEST PUSH2 0x14E PUSH2 0x18E JUMP JUMPDEST PUSH1 0x40 MLOAD PUSH2 0x15B SWAP2 SWAP1 PUSH2 0x242 JUMP JUMPDEST PUSH1 0x40 MLOAD DUP1 SWAP2 SUB SWAP1 RETURN JUMPDEST PUSH1 0x0 DUP2 SLOAD SWAP1 POP SWAP2 SWAP1 POP JUMP JUMPDEST PUSH1 0x0 SLOAD DUP2 JUMP JUMPDEST DUP1 DUP3 SSTORE POP POP JUMP JUMPDEST PUSH1 0x3 SLOAD DUP2 JUMP JUMPDEST PUSH1 0x1 SLOAD DUP2 JUMP JUMPDEST PUSH1 0x2 SLOAD DUP2 JUMP JUMPDEST PUSH1 0x0 PUSH1 0x1 SWAP1 POP SWAP1 JUMP JUMPDEST PUSH1 0x0 DUP1 REVERT JUMPDEST PUSH1 0x0 DUP2 SWAP1 POP SWAP2 SWAP1 POP JUMP JUMPDEST PUSH2 0x1AF DUP2 PUSH2 0x19C JUMP JUMPDEST DUP2 EQ PUSH2 0x1BA JUMPI PUSH1 0x0 DUP1 REVERT JUMPDEST POP JUMP JUMPDEST PUSH1 0x0 DUP2 CALLDATALOAD SWAP1 POP PUSH2 0x1CC DUP2 PUSH2 0x1A6 JUMP JUMPDEST SWAP3 SWAP2 POP POP JUMP JUMPDEST PUSH1 0x0 PUSH1 0x20 DUP3 DUP5 SUB SLT ISZERO PUSH2 0x1E8 JUMPI PUSH2 0x1E7 PUSH2 0x197 JUMP JUMPDEST JUMPDEST PUSH1 0x0 PUSH2 0x1F6 DUP5 DUP3 DUP6 ADD PUSH2 0x1BD JUMP JUMPDEST SWAP2 POP POP SWAP3 SWAP2 POP POP JUMP JUMPDEST PUSH1 0x0 DUP2 SWAP1 POP SWAP2 SWAP1 POP JUMP JUMPDEST PUSH2 0x212 DUP2 PUSH2 0x1FF JUMP JUMPDEST DUP3 MSTORE POP POP JUMP JUMPDEST PUSH1 0x0 PUSH1 0x20 DUP3 ADD SWAP1 POP PUSH2 0x22D PUSH1 0x0 DUP4 ADD DUP5 PUSH2 0x209 JUMP JUMPDEST SWAP3 SWAP2 POP POP JUMP JUMPDEST PUSH2 0x23C DUP2 PUSH2 0x19C JUMP JUMPDEST DUP3 MSTORE POP POP JUMP JUMPDEST PUSH1 0x0 PUSH1 0x20 DUP3 ADD SWAP1 POP PUSH2 0x257 PUSH1 0x0 DUP4 ADD DUP5 PUSH2 0x233 JUMP JUMPDEST SWAP3 SWAP2 POP POP JUMP JUMPDEST PUSH1 0x0 DUP1 PUSH1 0x40 DUP4 DUP6 SUB SLT ISZERO PUSH2 0x274 JUMPI PUSH2 0x273 PUSH2 0x197 JUMP JUMPDEST JUMPDEST PUSH1 0x0 PUSH2 0x282 DUP6 DUP3 DUP7 ADD PUSH2 0x1BD JUMP JUMPDEST SWAP3 POP POP PUSH1 0x20 PUSH2 0x293 DUP6 DUP3 DUP7 ADD PUSH2 0x1BD JUMP JUMPDEST SWAP2 POP POP SWAP3 POP SWAP3 SWAP1 POP JUMP INVALID LOG2 PUSH5 0x6970667358 0x22 SLT KECCAK256 TIMESTAMP 0xD 0x23 MSTORE8 SWAP4 0xBF 0xE5 0xEC SIGNEXTEND 0x4B 0xB5 JUMPDEST PUSH4 0x4F5CDA8A 0x2F 0xD9 PUSH15 0x6F388EEAFAB8F035BDE5CCDD64736F PUSH13 0x63430008110033000000000000 "
				},
				"gasEstimates": {
					"creation": {
						"codeDepositCost": "144600",
						"executionCost": "66508",
						"totalCost": "211108"
					},
					"external": {
						"getVariable(uint256)": "2703",
						"p()": "2429",
						"returnSlot()": "403",
						"setVariable(uint256,uint256)": "infinite",
						"x()": "2452",
						"y()": "2451",
						"z()": "2473"
					}
				},
				"methodIdentifiers": {
					"getVariable(uint256)": "0b9efd34",
					"p()": "9ae8886a",
					"returnSlot()": "d7146fc7",
					"setVariable(uint256,uint256)": "9801168d",
					"x()": "0c55699c",
					"y()": "a56dfe4a",
					"z()": "c5d7802e"
				}
			},
			"storageLayout": {
				"storage": [
					{
						"astId": 4,
						"contract": "StorageBasics.sol:StorageBasics",
						"label": "x",
						"offset": 0,
						"slot": "0",
						"type": "t_uint256"
					},
					{
						"astId": 7,
						"contract": "StorageBasics.sol:StorageBasics",
						"label": "y",
						"offset": 0,
						"slot": "1",
						"type": "t_uint256"
					},
					{
						"astId": 10,
						"contract": "StorageBasics.sol:StorageBasics",
						"label": "z",
						"offset": 0,
						"slot": "2",
						"type": "t_uint256"
					},
					{
						"astId": 12,
						"contract": "StorageBasics.sol:StorageBasics",
						"label": "p",
						"offset": 0,
						"slot": "3",
						"type": "t_uint256"
					}
				],
				"types": {
					"t_uint256": {
						"encoding": "inplace",
						"label": "uint256",
						"numberOfBytes": "32"
					}
				}
			},
			"userdoc": {
				"kind": "user",
				"methods": {},
				"version": 1
			}
		}
	}
}