{
	"BasicOperations.sol": {
		"IfStatement": {
			"abi": [
				{
					"inputs": [],
					"name": "bitFlipDemo",
					"outputs": [
						{
							"internalType": "bytes32",
							"name": "result1",
							"type": "bytes32"
						},
						{
							"internalType": "bytes32",
							"name": "result2",
							"type": "bytes32"
						},
						{
							"internalType": "bytes32",
							"name": "result3",
							"type": "bytes32"
						}
					],
					"stateMutability": "pure",
					"type": "function"
				},
				{
					"inputs": [
						{
							"internalType": "uint256",
							"name": "x",
							"type": "uint256"
						},
						{
							"internalType": "uint256",
							"name": "y",
							"type": "uint256"
						}
					],
					"name": "getMax",
					"outputs": [
						{
							"internalType": "uint256",
							"name": "max",
							"type": "uint256"
						}
					],
					"stateMutability": "pure",
					"type": "function"
				},
				{
					"inputs": [
						{
							"internalType": "uint256",
							"name": "x",
							"type": "uint256"
						},
						{
							"internalType": "uint256",
							"name": "y",
							"type": "uint256"
						}
					],
					"name": "isEqual",
					"outputs": [
						{
							"internalType": "bool",
							"name": "result",
							"type": "bool"
						}
					],
					"stateMutability": "pure",
					"type": "function"
				},
				{
					"inputs": [],
					"name": "isFalsy",
					"outputs": [
						{
							"internalType": "uint256",
							"name": "result",
							"type": "uint256"
						}
					],
					"stateMutability": "pure",
					"type": "function"
				},
				{
					"inputs": [],
					"name": "isTruthy",
					"outputs": [
						{
							"internalType": "uint256",
							"name": "result",
							"type": "uint256"
						}
					],
					"stateMutability": "pure",
					"type": "function"
				},
				{
					"inputs": [],
					"name": "negation",
					"outputs": [
						{
							"internalType": "uint256",
							"name": "result",
							"type": "uint256"
						}
					],
					"stateMutability": "pure",
					"type": "function"
				},
				{
					"inputs": [],
					"name": "safeNegation",
					"outputs": [
						{
							"internalType": "uint256",
							"name": "result",
							"type": "uint256"
						}
					],
					"stateMutability": "pure",
					"type": "function"
				},
				{
					"inputs": [],
					"name": "unsafe1Negation",
					"outputs": [
						{
							"internalType": "uint256",
							"name": "result",
							"type": "uint256"
						}
					],
					"stateMutability": "pure",
					"type": "function"
				},
				{
					"inputs": [],
					"name": "unsafe2Negation",
					"outputs": [
						{
							"internalType": "uint256",
							"name": "result",
							"type": "uint256"
						}
					],
					"stateMutability": "pure",
					"type": "function"
				}
			],
			"devdoc": {
				"kind": "dev",
				"methods": {},
				"version": 1
			},
			"evm": {
				"assembly": "    /* \"BasicOperations.sol\":1056:4046  contract IfStatement {... */\n  mstore(0x40, 0x80)\n  callvalue\n  dup1\n  iszero\n  tag_1\n  jumpi\n  0x00\n  dup1\n  revert\ntag_1:\n  pop\n  dataSize(sub_0)\n  dup1\n  dataOffset(sub_0)\n  0x00\n  codecopy\n  0x00\n  return\nstop\n\nsub_0: assembly {\n        /* \"BasicOperations.sol\":1056:4046  contract IfStatement {... */\n      mstore(0x40, 0x80)\n      callvalue\n      dup1\n      iszero\n      tag_1\n      jumpi\n      0x00\n      dup1\n      revert\n    tag_1:\n      pop\n      jumpi(tag_2, lt(calldatasize, 0x04))\n      shr(0xe0, calldataload(0x00))\n      dup1\n      0x41f563e3\n      gt\n      tag_12\n      jumpi\n      dup1\n      0x41f563e3\n      eq\n      tag_7\n      jumpi\n      dup1\n      0x584301da\n      eq\n      tag_8\n      jumpi\n      dup1\n      0x5f0d90c6\n      eq\n      tag_9\n      jumpi\n      dup1\n      0xc6c16a5d\n      eq\n      tag_10\n      jumpi\n      dup1\n      0xfc27de12\n      eq\n      tag_11\n      jumpi\n      jump(tag_2)\n    tag_12:\n      dup1\n      0x26b23020\n      eq\n      tag_3\n      jumpi\n      dup1\n      0x336c96f8\n      eq\n      tag_4\n      jumpi\n      dup1\n      0x392f69d4\n      eq\n      tag_5\n      jumpi\n      dup1\n      0x3ced224a\n      eq\n      tag_6\n      jumpi\n    tag_2:\n      0x00\n      dup1\n      revert\n        /* \"BasicOperations.sol\":3037:3284  function getMax(uint256 x, uint256 y) external pure returns (uint256 max) {... */\n    tag_3:\n      tag_13\n      0x04\n      dup1\n      calldatasize\n      sub\n      dup2\n      add\n      swap1\n      tag_14\n      swap2\n      swap1\n      tag_15\n      jump\t// in\n    tag_14:\n      tag_16\n      jump\t// in\n    tag_13:\n      mload(0x40)\n      tag_17\n      swap2\n      swap1\n      tag_18\n      jump\t// in\n    tag_17:\n      mload(0x40)\n      dup1\n      swap2\n      sub\n      swap1\n      return\n        /* \"BasicOperations.sol\":1795:2016  function negation() external pure returns (uint256 result) {... */\n    tag_4:\n      tag_19\n      tag_20\n      jump\t// in\n    tag_19:\n      mload(0x40)\n      tag_21\n      swap2\n      swap1\n      tag_18\n      jump\t// in\n    tag_21:\n      mload(0x40)\n      dup1\n      swap2\n      sub\n      swap1\n      return\n        /* \"BasicOperations.sol\":2253:2569  function bitFlipDemo() external pure returns (bytes32 result1, bytes32 result2, bytes32 result3) {... */\n    tag_5:\n      tag_22\n      tag_23\n      jump\t// in\n    tag_22:\n      mload(0x40)\n      tag_24\n      swap4\n      swap3\n      swap2\n      swap1\n      tag_25\n      jump\t// in\n    tag_24:\n      mload(0x40)\n      dup1\n      swap2\n      sub\n      swap1\n      return\n        /* \"BasicOperations.sol\":1521:1789  function isEqual(uint256 x, uint256 y) external pure returns(bool result) {... */\n    tag_6:\n      tag_26\n      0x04\n      dup1\n      calldatasize\n      sub\n      dup2\n      add\n      swap1\n      tag_27\n      swap2\n      swap1\n      tag_15\n      jump\t// in\n    tag_27:\n      tag_28\n      jump\t// in\n    tag_26:\n      mload(0x40)\n      tag_29\n      swap2\n      swap1\n      tag_30\n      jump\t// in\n    tag_29:\n      mload(0x40)\n      dup1\n      swap2\n      sub\n      swap1\n      return\n        /* \"BasicOperations.sol\":1084:1297  function isTruthy() external pure returns (uint256 result) {... */\n    tag_7:\n      tag_31\n      tag_32\n      jump\t// in\n    tag_31:\n      mload(0x40)\n      tag_33\n      swap2\n      swap1\n      tag_18\n      jump\t// in\n    tag_33:\n      mload(0x40)\n      dup1\n      swap2\n      sub\n      swap1\n      return\n        /* \"BasicOperations.sol\":2575:2800  function unsafe2Negation() external pure returns (uint256 result) {... */\n    tag_8:\n      tag_34\n      tag_35\n      jump\t// in\n    tag_34:\n      mload(0x40)\n      tag_36\n      swap2\n      swap1\n      tag_18\n      jump\t// in\n    tag_36:\n      mload(0x40)\n      dup1\n      swap2\n      sub\n      swap1\n      return\n        /* \"BasicOperations.sol\":1303:1515  function isFalsy() external pure returns (uint256 result) {... */\n    tag_9:\n      tag_37\n      tag_38\n      jump\t// in\n    tag_37:\n      mload(0x40)\n      tag_39\n      swap2\n      swap1\n      tag_18\n      jump\t// in\n    tag_39:\n      mload(0x40)\n      dup1\n      swap2\n      sub\n      swap1\n      return\n        /* \"BasicOperations.sol\":2022:2247  function unsafe1Negation() external pure returns (uint256 result) {... */\n    tag_10:\n      tag_40\n      tag_41\n      jump\t// in\n    tag_40:\n      mload(0x40)\n      tag_42\n      swap2\n      swap1\n      tag_18\n      jump\t// in\n    tag_42:\n      mload(0x40)\n      dup1\n      swap2\n      sub\n      swap1\n      return\n        /* \"BasicOperations.sol\":2806:3031  function safeNegation() external pure returns (uint256 result) {... */\n    tag_11:\n      tag_43\n      tag_44\n      jump\t// in\n    tag_43:\n      mload(0x40)\n      tag_45\n      swap2\n      swap1\n      tag_18\n      jump\t// in\n    tag_45:\n      mload(0x40)\n      dup1\n      swap2\n      sub\n      swap1\n      return\n        /* \"BasicOperations.sol\":3037:3284  function getMax(uint256 x, uint256 y) external pure returns (uint256 max) {... */\n    tag_16:\n        /* \"BasicOperations.sol\":3098:3109  uint256 max */\n      0x00\n        /* \"BasicOperations.sol\":3152:3153  y */\n      dup2\n        /* \"BasicOperations.sol\":3150:3151  x */\n      dup4\n        /* \"BasicOperations.sol\":3147:3154  lt(x,y) */\n      lt\n        /* \"BasicOperations.sol\":3144:3195  if lt(x,y) {... */\n      iszero\n      tag_47\n      jumpi\n        /* \"BasicOperations.sol\":3180:3181  y */\n      dup2\n        /* \"BasicOperations.sol\":3173:3181  max := y */\n      swap1\n      pop\n        /* \"BasicOperations.sol\":3144:3195  if lt(x,y) {... */\n    tag_47:\n        /* \"BasicOperations.sol\":3224:3225  y */\n      dup2\n        /* \"BasicOperations.sol\":3222:3223  x */\n      dup4\n        /* \"BasicOperations.sol\":3219:3226  lt(x,y) */\n      lt\n        /* \"BasicOperations.sol\":3209:3268  if iszero(lt(x,y)) {... */\n      tag_48\n      jumpi\n        /* \"BasicOperations.sol\":3253:3254  x */\n      dup3\n        /* \"BasicOperations.sol\":3246:3254  max := x */\n      swap1\n      pop\n        /* \"BasicOperations.sol\":3209:3268  if iszero(lt(x,y)) {... */\n    tag_48:\n        /* \"BasicOperations.sol\":3037:3284  function getMax(uint256 x, uint256 y) external pure returns (uint256 max) {... */\n      swap3\n      swap2\n      pop\n      pop\n      jump\t// out\n        /* \"BasicOperations.sol\":1795:2016  function negation() external pure returns (uint256 result) {... */\n    tag_20:\n        /* \"BasicOperations.sol\":1838:1852  uint256 result */\n      0x00\n        /* \"BasicOperations.sol\":1873:1874  1 */\n      0x01\n        /* \"BasicOperations.sol\":1864:1874  result = 1 */\n      swap1\n      pop\n        /* \"BasicOperations.sol\":1917:1918  0 */\n      0x00\n        /* \"BasicOperations.sol\":1907:1963  if iszero(0) {... */\n      tag_50\n      jumpi\n        /* \"BasicOperations.sol\":1948:1949  2 */\n      0x02\n        /* \"BasicOperations.sol\":1938:1949  result := 2 */\n      swap1\n      pop\n        /* \"BasicOperations.sol\":1907:1963  if iszero(0) {... */\n    tag_50:\n        /* \"BasicOperations.sol\":1795:2016  function negation() external pure returns (uint256 result) {... */\n      swap1\n      jump\t// out\n        /* \"BasicOperations.sol\":2253:2569  function bitFlipDemo() external pure returns (bytes32 result1, bytes32 result2, bytes32 result3) {... */\n    tag_23:\n        /* \"BasicOperations.sol\":2299:2314  bytes32 result1 */\n      0x00\n        /* \"BasicOperations.sol\":2316:2331  bytes32 result2 */\n      dup1\n        /* \"BasicOperations.sol\":2333:2348  bytes32 result3 */\n      0x00\n        /* \"BasicOperations.sol\":2360:2371  bytes32 uno */\n      dup1\n        /* \"BasicOperations.sol\":2374:2440  0xffffffffffffffffffffffffffffffffffffffffffffffffffffffffffffffff */\n      0xffffffffffffffffffffffffffffffffffffffffffffffffffffffffffffffff\n        /* \"BasicOperations.sol\":2360:2440  bytes32 uno = 0xffffffffffffffffffffffffffffffffffffffffffffffffffffffffffffffff */\n      0x00\n      shl\n      swap1\n      pop\n        /* \"BasicOperations.sol\":2489:2490  2 */\n      0x02\n        /* \"BasicOperations.sol\":2485:2491  not(2) */\n      not\n        /* \"BasicOperations.sol\":2474:2491  result1 := not(2) */\n      swap4\n      pop\n        /* \"BasicOperations.sol\":2519:2520  0 */\n      0x00\n        /* \"BasicOperations.sol\":2515:2521  not(0) */\n      not\n        /* \"BasicOperations.sol\":2504:2521  result2 := not(0) */\n      swap3\n      pop\n        /* \"BasicOperations.sol\":2549:2552  uno */\n      dup1\n        /* \"BasicOperations.sol\":2545:2553  not(uno) */\n      not\n        /* \"BasicOperations.sol\":2534:2553  result3 := not(uno) */\n      swap2\n      pop\n        /* \"BasicOperations.sol\":2460:2563  {... */\n      pop\n        /* \"BasicOperations.sol\":2253:2569  function bitFlipDemo() external pure returns (bytes32 result1, bytes32 result2, bytes32 result3) {... */\n      swap1\n      swap2\n      swap3\n      jump\t// out\n        /* \"BasicOperations.sol\":1521:1789  function isEqual(uint256 x, uint256 y) external pure returns(bool result) {... */\n    tag_28:\n        /* \"BasicOperations.sol\":1582:1593  bool result */\n      0x00\n        /* \"BasicOperations.sol\":1672:1673  y */\n      dup2\n        /* \"BasicOperations.sol\":1670:1671  x */\n      dup4\n        /* \"BasicOperations.sol\":1667:1674  eq(x,y) */\n      sub\n        /* \"BasicOperations.sol\":1664:1717  if eq(x,y) {... */\n      tag_53\n      jumpi\n        /* \"BasicOperations.sol\":1702:1703  1 */\n      0x01\n        /* \"BasicOperations.sol\":1693:1703  result:= 1 */\n      swap1\n      pop\n        /* \"BasicOperations.sol\":1664:1717  if eq(x,y) {... */\n    tag_53:\n        /* \"BasicOperations.sol\":1521:1789  function isEqual(uint256 x, uint256 y) external pure returns(bool result) {... */\n      swap3\n      swap2\n      pop\n      pop\n      jump\t// out\n        /* \"BasicOperations.sol\":1084:1297  function isTruthy() external pure returns (uint256 result) {... */\n    tag_32:\n        /* \"BasicOperations.sol\":1127:1141  uint256 result */\n      0x00\n        /* \"BasicOperations.sol\":1162:1163  2 */\n      0x02\n        /* \"BasicOperations.sol\":1153:1163  result = 2 */\n      swap1\n      pop\n        /* \"BasicOperations.sol\":1199:1200  2 */\n      0x02\n        /* \"BasicOperations.sol\":1196:1244  if 2 {... */\n      iszero\n      tag_55\n      jumpi\n        /* \"BasicOperations.sol\":1229:1230  1 */\n      0x01\n        /* \"BasicOperations.sol\":1219:1230  result := 1 */\n      swap1\n      pop\n        /* \"BasicOperations.sol\":1196:1244  if 2 {... */\n    tag_55:\n        /* \"BasicOperations.sol\":1084:1297  function isTruthy() external pure returns (uint256 result) {... */\n      swap1\n      jump\t// out\n        /* \"BasicOperations.sol\":2575:2800  function unsafe2Negation() external pure returns (uint256 result) {... */\n    tag_35:\n        /* \"BasicOperations.sol\":2625:2639  uint256 result */\n      0x00\n        /* \"BasicOperations.sol\":2660:2661  1 */\n      0x01\n        /* \"BasicOperations.sol\":2651:2661  result = 1 */\n      swap1\n      pop\n        /* \"BasicOperations.sol\":2701:2702  2 */\n      0x02\n        /* \"BasicOperations.sol\":2697:2703  not(2) */\n      not\n        /* \"BasicOperations.sol\":2694:2747  if not(2) {... */\n      iszero\n      tag_57\n      jumpi\n        /* \"BasicOperations.sol\":2732:2733  2 */\n      0x02\n        /* \"BasicOperations.sol\":2722:2733  result := 2 */\n      swap1\n      pop\n        /* \"BasicOperations.sol\":2694:2747  if not(2) {... */\n    tag_57:\n        /* \"BasicOperations.sol\":2575:2800  function unsafe2Negation() external pure returns (uint256 result) {... */\n      swap1\n      jump\t// out\n        /* \"BasicOperations.sol\":1303:1515  function isFalsy() external pure returns (uint256 result) {... */\n    tag_38:\n        /* \"BasicOperations.sol\":1345:1359  uint256 result */\n      0x00\n        /* \"BasicOperations.sol\":1380:1381  1 */\n      0x01\n        /* \"BasicOperations.sol\":1371:1381  result = 1 */\n      swap1\n      pop\n        /* \"BasicOperations.sol\":1417:1418  0 */\n      0x00\n        /* \"BasicOperations.sol\":1414:1462  if 0 {... */\n      iszero\n      tag_59\n      jumpi\n        /* \"BasicOperations.sol\":1447:1448  2 */\n      0x02\n        /* \"BasicOperations.sol\":1437:1448  result := 2 */\n      swap1\n      pop\n        /* \"BasicOperations.sol\":1414:1462  if 0 {... */\n    tag_59:\n        /* \"BasicOperations.sol\":1303:1515  function isFalsy() external pure returns (uint256 result) {... */\n      swap1\n      jump\t// out\n        /* \"BasicOperations.sol\":2022:2247  function unsafe1Negation() external pure returns (uint256 result) {... */\n    tag_41:\n        /* \"BasicOperations.sol\":2072:2086  uint256 result */\n      0x00\n        /* \"BasicOperations.sol\":2107:2108  1 */\n      0x01\n        /* \"BasicOperations.sol\":2098:2108  result = 1 */\n      swap1\n      pop\n        /* \"BasicOperations.sol\":2148:2149  0 */\n      0x00\n        /* \"BasicOperations.sol\":2144:2150  not(0) */\n      not\n        /* \"BasicOperations.sol\":2141:2194  if not(0) {... */\n      iszero\n      tag_61\n      jumpi\n        /* \"BasicOperations.sol\":2179:2180  2 */\n      0x02\n        /* \"BasicOperations.sol\":2169:2180  result := 2 */\n      swap1\n      pop\n        /* \"BasicOperations.sol\":2141:2194  if not(0) {... */\n    tag_61:\n        /* \"BasicOperations.sol\":2022:2247  function unsafe1Negation() external pure returns (uint256 result) {... */\n      swap1\n      jump\t// out\n        /* \"BasicOperations.sol\":2806:3031  function safeNegation() external pure returns (uint256 result) {... */\n    tag_44:\n        /* \"BasicOperations.sol\":2853:2867  uint256 result */\n      0x00\n        /* \"BasicOperations.sol\":2888:2889  1 */\n      0x01\n        /* \"BasicOperations.sol\":2879:2889  result = 1 */\n      swap1\n      pop\n        /* \"BasicOperations.sol\":2932:2933  2 */\n      0x02\n        /* \"BasicOperations.sol\":2922:2978  if iszero(2) {... */\n      tag_63\n      jumpi\n        /* \"BasicOperations.sol\":2963:2964  2 */\n      0x02\n        /* \"BasicOperations.sol\":2953:2964  result := 2 */\n      swap1\n      pop\n        /* \"BasicOperations.sol\":2922:2978  if iszero(2) {... */\n    tag_63:\n        /* \"BasicOperations.sol\":2806:3031  function safeNegation() external pure returns (uint256 result) {... */\n      swap1\n      jump\t// out\n        /* \"#utility.yul\":88:205   */\n    tag_65:\n        /* \"#utility.yul\":197:198   */\n      0x00\n        /* \"#utility.yul\":194:195   */\n      dup1\n        /* \"#utility.yul\":187:199   */\n      revert\n        /* \"#utility.yul\":334:411   */\n    tag_67:\n        /* \"#utility.yul\":371:378   */\n      0x00\n        /* \"#utility.yul\":400:405   */\n      dup2\n        /* \"#utility.yul\":389:405   */\n      swap1\n      pop\n        /* \"#utility.yul\":334:411   */\n      swap2\n      swap1\n      pop\n      jump\t// out\n        /* \"#utility.yul\":417:539   */\n    tag_68:\n        /* \"#utility.yul\":490:514   */\n      tag_81\n        /* \"#utility.yul\":508:513   */\n      dup2\n        /* \"#utility.yul\":490:514   */\n      tag_67\n      jump\t// in\n    tag_81:\n        /* \"#utility.yul\":483:488   */\n      dup2\n        /* \"#utility.yul\":480:515   */\n      eq\n        /* \"#utility.yul\":470:533   */\n      tag_82\n      jumpi\n        /* \"#utility.yul\":529:530   */\n      0x00\n        /* \"#utility.yul\":526:527   */\n      dup1\n        /* \"#utility.yul\":519:531   */\n      revert\n        /* \"#utility.yul\":470:533   */\n    tag_82:\n        /* \"#utility.yul\":417:539   */\n      pop\n      jump\t// out\n        /* \"#utility.yul\":545:684   */\n    tag_69:\n        /* \"#utility.yul\":591:596   */\n      0x00\n        /* \"#utility.yul\":629:635   */\n      dup2\n        /* \"#utility.yul\":616:636   */\n      calldataload\n        /* \"#utility.yul\":607:636   */\n      swap1\n      pop\n        /* \"#utility.yul\":645:678   */\n      tag_84\n        /* \"#utility.yul\":672:677   */\n      dup2\n        /* \"#utility.yul\":645:678   */\n      tag_68\n      jump\t// in\n    tag_84:\n        /* \"#utility.yul\":545:684   */\n      swap3\n      swap2\n      pop\n      pop\n      jump\t// out\n        /* \"#utility.yul\":690:1164   */\n    tag_15:\n        /* \"#utility.yul\":758:764   */\n      0x00\n        /* \"#utility.yul\":766:772   */\n      dup1\n        /* \"#utility.yul\":815:817   */\n      0x40\n        /* \"#utility.yul\":803:812   */\n      dup4\n        /* \"#utility.yul\":794:801   */\n      dup6\n        /* \"#utility.yul\":790:813   */\n      sub\n        /* \"#utility.yul\":786:818   */\n      slt\n        /* \"#utility.yul\":783:902   */\n      iszero\n      tag_86\n      jumpi\n        /* \"#utility.yul\":821:900   */\n      tag_87\n      tag_65\n      jump\t// in\n    tag_87:\n        /* \"#utility.yul\":783:902   */\n    tag_86:\n        /* \"#utility.yul\":941:942   */\n      0x00\n        /* \"#utility.yul\":966:1019   */\n      tag_88\n        /* \"#utility.yul\":1011:1018   */\n      dup6\n        /* \"#utility.yul\":1002:1008   */\n      dup3\n        /* \"#utility.yul\":991:1000   */\n      dup7\n        /* \"#utility.yul\":987:1009   */\n      add\n        /* \"#utility.yul\":966:1019   */\n      tag_69\n      jump\t// in\n    tag_88:\n        /* \"#utility.yul\":956:1019   */\n      swap3\n      pop\n        /* \"#utility.yul\":912:1029   */\n      pop\n        /* \"#utility.yul\":1068:1070   */\n      0x20\n        /* \"#utility.yul\":1094:1147   */\n      tag_89\n        /* \"#utility.yul\":1139:1146   */\n      dup6\n        /* \"#utility.yul\":1130:1136   */\n      dup3\n        /* \"#utility.yul\":1119:1128   */\n      dup7\n        /* \"#utility.yul\":1115:1137   */\n      add\n        /* \"#utility.yul\":1094:1147   */\n      tag_69\n      jump\t// in\n    tag_89:\n        /* \"#utility.yul\":1084:1147   */\n      swap2\n      pop\n        /* \"#utility.yul\":1039:1157   */\n      pop\n        /* \"#utility.yul\":690:1164   */\n      swap3\n      pop\n      swap3\n      swap1\n      pop\n      jump\t// out\n        /* \"#utility.yul\":1170:1288   */\n    tag_70:\n        /* \"#utility.yul\":1257:1281   */\n      tag_91\n        /* \"#utility.yul\":1275:1280   */\n      dup2\n        /* \"#utility.yul\":1257:1281   */\n      tag_67\n      jump\t// in\n    tag_91:\n        /* \"#utility.yul\":1252:1255   */\n      dup3\n        /* \"#utility.yul\":1245:1282   */\n      mstore\n        /* \"#utility.yul\":1170:1288   */\n      pop\n      pop\n      jump\t// out\n        /* \"#utility.yul\":1294:1516   */\n    tag_18:\n        /* \"#utility.yul\":1387:1391   */\n      0x00\n        /* \"#utility.yul\":1425:1427   */\n      0x20\n        /* \"#utility.yul\":1414:1423   */\n      dup3\n        /* \"#utility.yul\":1410:1428   */\n      add\n        /* \"#utility.yul\":1402:1428   */\n      swap1\n      pop\n        /* \"#utility.yul\":1438:1509   */\n      tag_93\n        /* \"#utility.yul\":1506:1507   */\n      0x00\n        /* \"#utility.yul\":1495:1504   */\n      dup4\n        /* \"#utility.yul\":1491:1508   */\n      add\n        /* \"#utility.yul\":1482:1488   */\n      dup5\n        /* \"#utility.yul\":1438:1509   */\n      tag_70\n      jump\t// in\n    tag_93:\n        /* \"#utility.yul\":1294:1516   */\n      swap3\n      swap2\n      pop\n      pop\n      jump\t// out\n        /* \"#utility.yul\":1522:1599   */\n    tag_71:\n        /* \"#utility.yul\":1559:1566   */\n      0x00\n        /* \"#utility.yul\":1588:1593   */\n      dup2\n        /* \"#utility.yul\":1577:1593   */\n      swap1\n      pop\n        /* \"#utility.yul\":1522:1599   */\n      swap2\n      swap1\n      pop\n      jump\t// out\n        /* \"#utility.yul\":1605:1723   */\n    tag_72:\n        /* \"#utility.yul\":1692:1716   */\n      tag_96\n        /* \"#utility.yul\":1710:1715   */\n      dup2\n        /* \"#utility.yul\":1692:1716   */\n      tag_71\n      jump\t// in\n    tag_96:\n        /* \"#utility.yul\":1687:1690   */\n      dup3\n        /* \"#utility.yul\":1680:1717   */\n      mstore\n        /* \"#utility.yul\":1605:1723   */\n      pop\n      pop\n      jump\t// out\n        /* \"#utility.yul\":1729:2171   */\n    tag_25:\n        /* \"#utility.yul\":1878:1882   */\n      0x00\n        /* \"#utility.yul\":1916:1918   */\n      0x60\n        /* \"#utility.yul\":1905:1914   */\n      dup3\n        /* \"#utility.yul\":1901:1919   */\n      add\n        /* \"#utility.yul\":1893:1919   */\n      swap1\n      pop\n        /* \"#utility.yul\":1929:2000   */\n      tag_98\n        /* \"#utility.yul\":1997:1998   */\n      0x00\n        /* \"#utility.yul\":1986:1995   */\n      dup4\n        /* \"#utility.yul\":1982:1999   */\n      add\n        /* \"#utility.yul\":1973:1979   */\n      dup7\n        /* \"#utility.yul\":1929:2000   */\n      tag_72\n      jump\t// in\n    tag_98:\n        /* \"#utility.yul\":2010:2082   */\n      tag_99\n        /* \"#utility.yul\":2078:2080   */\n      0x20\n        /* \"#utility.yul\":2067:2076   */\n      dup4\n        /* \"#utility.yul\":2063:2081   */\n      add\n        /* \"#utility.yul\":2054:2060   */\n      dup6\n        /* \"#utility.yul\":2010:2082   */\n      tag_72\n      jump\t// in\n    tag_99:\n        /* \"#utility.yul\":2092:2164   */\n      tag_100\n        /* \"#utility.yul\":2160:2162   */\n      0x40\n        /* \"#utility.yul\":2149:2158   */\n      dup4\n        /* \"#utility.yul\":2145:2163   */\n      add\n        /* \"#utility.yul\":2136:2142   */\n      dup5\n        /* \"#utility.yul\":2092:2164   */\n      tag_72\n      jump\t// in\n    tag_100:\n        /* \"#utility.yul\":1729:2171   */\n      swap5\n      swap4\n      pop\n      pop\n      pop\n      pop\n      jump\t// out\n        /* \"#utility.yul\":2177:2267   */\n    tag_73:\n        /* \"#utility.yul\":2211:2218   */\n      0x00\n        /* \"#utility.yul\":2254:2259   */\n      dup2\n        /* \"#utility.yul\":2247:2260   */\n      iszero\n        /* \"#utility.yul\":2240:2261   */\n      iszero\n        /* \"#utility.yul\":2229:2261   */\n      swap1\n      pop\n        /* \"#utility.yul\":2177:2267   */\n      swap2\n      swap1\n      pop\n      jump\t// out\n        /* \"#utility.yul\":2273:2382   */\n    tag_74:\n        /* \"#utility.yul\":2354:2375   */\n      tag_103\n        /* \"#utility.yul\":2369:2374   */\n      dup2\n        /* \"#utility.yul\":2354:2375   */\n      tag_73\n      jump\t// in\n    tag_103:\n        /* \"#utility.yul\":2349:2352   */\n      dup3\n        /* \"#utility.yul\":2342:2376   */\n      mstore\n        /* \"#utility.yul\":2273:2382   */\n      pop\n      pop\n      jump\t// out\n        /* \"#utility.yul\":2388:2598   */\n    tag_30:\n        /* \"#utility.yul\":2475:2479   */\n      0x00\n        /* \"#utility.yul\":2513:2515   */\n      0x20\n        /* \"#utility.yul\":2502:2511   */\n      dup3\n        /* \"#utility.yul\":2498:2516   */\n      add\n        /* \"#utility.yul\":2490:2516   */\n      swap1\n      pop\n        /* \"#utility.yul\":2526:2591   */\n      tag_105\n        /* \"#utility.yul\":2588:2589   */\n      0x00\n        /* \"#utility.yul\":2577:2586   */\n      dup4\n        /* \"#utility.yul\":2573:2590   */\n      add\n        /* \"#utility.yul\":2564:2570   */\n      dup5\n        /* \"#utility.yul\":2526:2591   */\n      tag_74\n      jump\t// in\n    tag_105:\n        /* \"#utility.yul\":2388:2598   */\n      swap3\n      swap2\n      pop\n      pop\n      jump\t// out\n\n    auxdata: 0xa26469706673582212208745686526d4c1972af60b59fa81a8139aaa87f5d043b3bf2372b5c69c8acda364736f6c63430008110033\n}\n",
				"bytecode": {
					"linkReferences": {},
					"object": "608060405234801561001057600080fd5b5061041e806100206000396000f3fe608060405234801561001057600080fd5b50600436106100935760003560e01c806341f563e31161006657806341f563e314610136578063584301da146101545780635f0d90c614610172578063c6c16a5d14610190578063fc27de12146101ae57610093565b806326b2302014610098578063336c96f8146100c8578063392f69d4146100e65780633ced224a14610106575b600080fd5b6100b260048036038101906100ad91906102f8565b6101cc565b6040516100bf9190610347565b60405180910390f35b6100d06101eb565b6040516100dd9190610347565b60405180910390f35b6100ee6101ff565b6040516100fd9392919061037b565b60405180910390f35b610120600480360381019061011b91906102f8565b61023f565b60405161012d91906103cd565b60405180910390f35b61013e610253565b60405161014b9190610347565b60405180910390f35b61015c610268565b6040516101699190610347565b60405180910390f35b61017a61027e565b6040516101879190610347565b60405180910390f35b610198610293565b6040516101a59190610347565b60405180910390f35b6101b66102a9565b6040516101c39190610347565b60405180910390f35b6000818310156101da578190505b8183106101e5578290505b92915050565b60006001905060006101fc57600290505b90565b6000806000807fffffffffffffffffffffffffffffffffffffffffffffffffffffffffffffffff60001b9050600219935060001992508019915050909192565b600081830361024d57600190505b92915050565b60006002905060021561026557600190505b90565b6000600190506002191561027b57600290505b90565b60006001905060001561029057600290505b90565b600060019050600019156102a657600290505b90565b60006001905060026102ba57600290505b90565b600080fd5b6000819050919050565b6102d5816102c2565b81146102e057600080fd5b50565b6000813590506102f2816102cc565b92915050565b6000806040838503121561030f5761030e6102bd565b5b600061031d858286016102e3565b925050602061032e858286016102e3565b9150509250929050565b610341816102c2565b82525050565b600060208201905061035c6000830184610338565b92915050565b6000819050919050565b61037581610362565b82525050565b6000606082019050610390600083018661036c565b61039d602083018561036c565b6103aa604083018461036c565b949350505050565b60008115159050919050565b6103c7816103b2565b82525050565b60006020820190506103e260008301846103be565b9291505056fea26469706673582212208745686526d4c1972af60b59fa81a8139aaa87f5d043b3bf2372b5c69c8acda364736f6c63430008110033",
					"opcodes": "PUSH1 0x80 PUSH1 0x40 MSTORE CALLVALUE DUP1 ISZERO PUSH2 0x10 JUMPI PUSH1 0x0 DUP1 REVERT JUMPDEST POP PUSH2 0x41E DUP1 PUSH2 0x20 PUSH1 0x0 CODECOPY PUSH1 0x0 RETURN INVALID PUSH1 0x80 PUSH1 0x40 MSTORE CALLVALUE DUP1 ISZERO PUSH2 0x10 JUMPI PUSH1 0x0 DUP1 REVERT JUMPDEST POP PUSH1 0x4 CALLDATASIZE LT PUSH2 0x93 JUMPI PUSH1 0x0 CALLDATALOAD PUSH1 0xE0 SHR DUP1 PUSH4 0x41F563E3 GT PUSH2 0x66 JUMPI DUP1 PUSH4 0x41F563E3 EQ PUSH2 0x136 JUMPI DUP1 PUSH4 0x584301DA EQ PUSH2 0x154 JUMPI DUP1 PUSH4 0x5F0D90C6 EQ PUSH2 0x172 JUMPI DUP1 PUSH4 0xC6C16A5D EQ PUSH2 0x190 JUMPI DUP1 PUSH4 0xFC27DE12 EQ PUSH2 0x1AE JUMPI PUSH2 0x93 JUMP JUMPDEST DUP1 PUSH4 0x26B23020 EQ PUSH2 0x98 JUMPI DUP1 PUSH4 0x336C96F8 EQ PUSH2 0xC8 JUMPI DUP1 PUSH4 0x392F69D4 EQ PUSH2 0xE6 JUMPI DUP1 PUSH4 0x3CED224A EQ PUSH2 0x106 JUMPI JUMPDEST PUSH1 0x0 DUP1 REVERT JUMPDEST PUSH2 0xB2 PUSH1 0x4 DUP1 CALLDATASIZE SUB DUP2 ADD SWAP1 PUSH2 0xAD SWAP2 SWAP1 PUSH2 0x2F8 JUMP JUMPDEST PUSH2 0x1CC JUMP JUMPDEST PUSH1 0x40 MLOAD PUSH2 0xBF SWAP2 SWAP1 PUSH2 0x347 JUMP JUMPDEST PUSH1 0x40 MLOAD DUP1 SWAP2 SUB SWAP1 RETURN JUMPDEST PUSH2 0xD0 PUSH2 0x1EB JUMP JUMPDEST PUSH1 0x40 MLOAD PUSH2 0xDD SWAP2 SWAP1 PUSH2 0x347 JUMP JUMPDEST PUSH1 0x40 MLOAD DUP1 SWAP2 SUB SWAP1 RETURN JUMPDEST PUSH2 0xEE PUSH2 0x1FF JUMP JUMPDEST PUSH1 0x40 MLOAD PUSH2 0xFD SWAP4 SWAP3 SWAP2 SWAP1 PUSH2 0x37B JUMP JUMPDEST PUSH1 0x40 MLOAD DUP1 SWAP2 SUB SWAP1 RETURN JUMPDEST PUSH2 0x120 PUSH1 0x4 DUP1 CALLDATASIZE SUB DUP2 ADD SWAP1 PUSH2 0x11B SWAP2 SWAP1 PUSH2 0x2F8 JUMP JUMPDEST PUSH2 0x23F JUMP JUMPDEST PUSH1 0x40 MLOAD PUSH2 0x12D SWAP2 SWAP1 PUSH2 0x3CD JUMP JUMPDEST PUSH1 0x40 MLOAD DUP1 SWAP2 SUB SWAP1 RETURN JUMPDEST PUSH2 0x13E PUSH2 0x253 JUMP JUMPDEST PUSH1 0x40 MLOAD PUSH2 0x14B SWAP2 SWAP1 PUSH2 0x347 JUMP JUMPDEST PUSH1 0x40 MLOAD DUP1 SWAP2 SUB SWAP1 RETURN JUMPDEST PUSH2 0x15C PUSH2 0x268 JUMP JUMPDEST PUSH1 0x40 MLOAD PUSH2 0x169 SWAP2 SWAP1 PUSH2 0x347 JUMP JUMPDEST PUSH1 0x40 MLOAD DUP1 SWAP2 SUB SWAP1 RETURN JUMPDEST PUSH2 0x17A PUSH2 0x27E JUMP JUMPDEST PUSH1 0x40 MLOAD PUSH2 0x187 SWAP2 SWAP1 PUSH2 0x347 JUMP JUMPDEST PUSH1 0x40 MLOAD DUP1 SWAP2 SUB SWAP1 RETURN JUMPDEST PUSH2 0x198 PUSH2 0x293 JUMP JUMPDEST PUSH1 0x40 MLOAD PUSH2 0x1A5 SWAP2 SWAP1 PUSH2 0x347 JUMP JUMPDEST PUSH1 0x40 MLOAD DUP1 SWAP2 SUB SWAP1 RETURN JUMPDEST PUSH2 0x1B6 PUSH2 0x2A9 JUMP JUMPDEST PUSH1 0x40 MLOAD PUSH2 0x1C3 SWAP2 SWAP1 PUSH2 0x347 JUMP JUMPDEST PUSH1 0x40 MLOAD DUP1 SWAP2 SUB SWAP1 RETURN JUMPDEST PUSH1 0x0 DUP2 DUP4 LT ISZERO PUSH2 0x1DA JUMPI DUP2 SWAP1 POP JUMPDEST DUP2 DUP4 LT PUSH2 0x1E5 JUMPI DUP3 SWAP1 POP JUMPDEST SWAP3 SWAP2 POP POP JUMP JUMPDEST PUSH1 0x0 PUSH1 0x1 SWAP1 POP PUSH1 0x0 PUSH2 0x1FC JUMPI PUSH1 0x2 SWAP1 POP JUMPDEST SWAP1 JUMP JUMPDEST PUSH1 0x0 DUP1 PUSH1 0x0 DUP1 PUSH32 0xFFFFFFFFFFFFFFFFFFFFFFFFFFFFFFFFFFFFFFFFFFFFFFFFFFFFFFFFFFFFFFFF PUSH1 0x0 SHL SWAP1 POP PUSH1 0x2 NOT SWAP4 POP PUSH1 0x0 NOT SWAP3 POP DUP1 NOT SWAP2 POP POP SWAP1 SWAP2 SWAP3 JUMP JUMPDEST PUSH1 0x0 DUP2 DUP4 SUB PUSH2 0x24D JUMPI PUSH1 0x1 SWAP1 POP JUMPDEST SWAP3 SWAP2 POP POP JUMP JUMPDEST PUSH1 0x0 PUSH1 0x2 SWAP1 POP PUSH1 0x2 ISZERO PUSH2 0x265 JUMPI PUSH1 0x1 SWAP1 POP JUMPDEST SWAP1 JUMP JUMPDEST PUSH1 0x0 PUSH1 0x1 SWAP1 POP PUSH1 0x2 NOT ISZERO PUSH2 0x27B JUMPI PUSH1 0x2 SWAP1 POP JUMPDEST SWAP1 JUMP JUMPDEST PUSH1 0x0 PUSH1 0x1 SWAP1 POP PUSH1 0x0 ISZERO PUSH2 0x290 JUMPI PUSH1 0x2 SWAP1 POP JUMPDEST SWAP1 JUMP JUMPDEST PUSH1 0x0 PUSH1 0x1 SWAP1 POP PUSH1 0x0 NOT ISZERO PUSH2 0x2A6 JUMPI PUSH1 0x2 SWAP1 POP JUMPDEST SWAP1 JUMP JUMPDEST PUSH1 0x0 PUSH1 0x1 SWAP1 POP PUSH1 0x2 PUSH2 0x2BA JUMPI PUSH1 0x2 SWAP1 POP JUMPDEST SWAP1 JUMP JUMPDEST PUSH1 0x0 DUP1 REVERT JUMPDEST PUSH1 0x0 DUP2 SWAP1 POP SWAP2 SWAP1 POP JUMP JUMPDEST PUSH2 0x2D5 DUP2 PUSH2 0x2C2 JUMP JUMPDEST DUP2 EQ PUSH2 0x2E0 JUMPI PUSH1 0x0 DUP1 REVERT JUMPDEST POP JUMP JUMPDEST PUSH1 0x0 DUP2 CALLDATALOAD SWAP1 POP PUSH2 0x2F2 DUP2 PUSH2 0x2CC JUMP JUMPDEST SWAP3 SWAP2 POP POP JUMP JUMPDEST PUSH1 0x0 DUP1 PUSH1 0x40 DUP4 DUP6 SUB SLT ISZERO PUSH2 0x30F JUMPI PUSH2 0x30E PUSH2 0x2BD JUMP JUMPDEST JUMPDEST PUSH1 0x0 PUSH2 0x31D DUP6 DUP3 DUP7 ADD PUSH2 0x2E3 JUMP JUMPDEST SWAP3 POP POP PUSH1 0x20 PUSH2 0x32E DUP6 DUP3 DUP7 ADD PUSH2 0x2E3 JUMP JUMPDEST SWAP2 POP POP SWAP3 POP SWAP3 SWAP1 POP JUMP JUMPDEST PUSH2 0x341 DUP2 PUSH2 0x2C2 JUMP JUMPDEST DUP3 MSTORE POP POP JUMP JUMPDEST PUSH1 0x0 PUSH1 0x20 DUP3 ADD SWAP1 POP PUSH2 0x35C PUSH1 0x0 DUP4 ADD DUP5 PUSH2 0x338 JUMP JUMPDEST SWAP3 SWAP2 POP POP JUMP JUMPDEST PUSH1 0x0 DUP2 SWAP1 POP SWAP2 SWAP1 POP JUMP JUMPDEST PUSH2 0x375 DUP2 PUSH2 0x362 JUMP JUMPDEST DUP3 MSTORE POP POP JUMP JUMPDEST PUSH1 0x0 PUSH1 0x60 DUP3 ADD SWAP1 POP PUSH2 0x390 PUSH1 0x0 DUP4 ADD DUP7 PUSH2 0x36C JUMP JUMPDEST PUSH2 0x39D PUSH1 0x20 DUP4 ADD DUP6 PUSH2 0x36C JUMP JUMPDEST PUSH2 0x3AA PUSH1 0x40 DUP4 ADD DUP5 PUSH2 0x36C JUMP JUMPDEST SWAP5 SWAP4 POP POP POP POP JUMP JUMPDEST PUSH1 0x0 DUP2 ISZERO ISZERO SWAP1 POP SWAP2 SWAP1 POP JUMP JUMPDEST PUSH2 0x3C7 DUP2 PUSH2 0x3B2 JUMP JUMPDEST DUP3 MSTORE POP POP JUMP JUMPDEST PUSH1 0x0 PUSH1 0x20 DUP3 ADD SWAP1 POP PUSH2 0x3E2 PUSH1 0x0 DUP4 ADD DUP5 PUSH2 0x3BE JUMP JUMPDEST SWAP3 SWAP2 POP POP JUMP INVALID LOG2 PUSH5 0x6970667358 0x22 SLT KECCAK256 DUP8 GASLIMIT PUSH9 0x6526D4C1972AF60B59 STATICCALL DUP2 0xA8 SGT SWAP11 0xAA DUP8 CREATE2 0xD0 NUMBER 0xB3 0xBF 0x23 PUSH19 0xB5C69C8ACDA364736F6C634300081100330000 "
				},
				"gasEstimates": {
					"creation": {
						"codeDepositCost": "210800",
						"executionCost": "251",
						"totalCost": "211051"
					},
					"external": {
						"bitFlipDemo()": "infinite",
						"getMax(uint256,uint256)": "infinite",
						"isEqual(uint256,uint256)": "infinite",
						"isFalsy()": "401",
						"isTruthy()": "365",
						"negation()": "385",
						"safeNegation()": "442",
						"unsafe1Negation()": "434",
						"unsafe2Negation()": "390"
					}
				},
				"methodIdentifiers": {
					"bitFlipDemo()": "392f69d4",
					"getMax(uint256,uint256)": "26b23020",
					"isEqual(uint256,uint256)": "3ced224a",
					"isFalsy()": "5f0d90c6",
					"isTruthy()": "41f563e3",
					"negation()": "336c96f8",
					"safeNegation()": "fc27de12",
					"unsafe1Negation()": "c6c16a5d",
					"unsafe2Negation()": "584301da"
				}
			},
			"storageLayout": {
				"storage": [],
				"types": null
			},
			"userdoc": {
				"kind": "user",
				"methods": {},
				"version": 1
			}
		}
	}
}