{
	"BasicOperations.sol": {
		"ForLoopYul": {
			"abi": [
				{
					"inputs": [
						{
							"internalType": "uint8",
							"name": "x",
							"type": "uint8"
						}
					],
					"name": "forLoopYul",
					"outputs": [
						{
							"internalType": "uint256",
							"name": "result",
							"type": "uint256"
						}
					],
					"stateMutability": "pure",
					"type": "function"
				},
				{
					"inputs": [
						{
							"internalType": "uint256",
							"name": "x",
							"type": "uint256"
						}
					],
					"name": "isPrime",
					"outputs": [
						{
							"internalType": "bool",
							"name": "p",
							"type": "bool"
						}
					],
					"stateMutability": "pure",
					"type": "function"
				},
				{
					"inputs": [],
					"name": "testPrime",
					"outputs": [
						{
							"internalType": "bool",
							"name": "",
							"type": "bool"
						}
					],
					"stateMutability": "pure",
					"type": "function"
				}
			],
			"devdoc": {
				"kind": "dev",
				"methods": {},
				"version": 1
			},
			"evm": {
				"assembly": "    /* \"BasicOperations.sol\":60:1054  contract ForLoopYul {... */\n  mstore(0x40, 0x80)\n  callvalue\n  dup1\n  iszero\n  tag_1\n  jumpi\n  0x00\n  dup1\n  revert\ntag_1:\n  pop\n  dataSize(sub_0)\n  dup1\n  dataOffset(sub_0)\n  0x00\n  codecopy\n  0x00\n  return\nstop\n\nsub_0: assembly {\n        /* \"BasicOperations.sol\":60:1054  contract ForLoopYul {... */\n      mstore(0x40, 0x80)\n      callvalue\n      dup1\n      iszero\n      tag_1\n      jumpi\n      0x00\n      dup1\n      revert\n    tag_1:\n      pop\n      jumpi(tag_2, lt(calldatasize, 0x04))\n      shr(0xe0, calldataload(0x00))\n      dup1\n      0x22cddfc2\n      eq\n      tag_3\n      jumpi\n      dup1\n      0x42703494\n      eq\n      tag_4\n      jumpi\n      dup1\n      0xdbec04bc\n      eq\n      tag_5\n      jumpi\n    tag_2:\n      0x00\n      dup1\n      revert\n        /* \"BasicOperations.sol\":794:1052  function testPrime() external pure returns (bool){... */\n    tag_3:\n      tag_6\n      tag_7\n      jump\t// in\n    tag_6:\n      mload(0x40)\n      tag_8\n      swap2\n      swap1\n      tag_9\n      jump\t// in\n    tag_8:\n      mload(0x40)\n      dup1\n      swap2\n      sub\n      swap1\n      return\n        /* \"BasicOperations.sol\":368:787  function isPrime(uint256 x) public pure returns(bool p) {... */\n    tag_4:\n      tag_10\n      0x04\n      dup1\n      calldatasize\n      sub\n      dup2\n      add\n      swap1\n      tag_11\n      swap2\n      swap1\n      tag_12\n      jump\t// in\n    tag_11:\n      tag_13\n      jump\t// in\n    tag_10:\n      mload(0x40)\n      tag_14\n      swap2\n      swap1\n      tag_9\n      jump\t// in\n    tag_14:\n      mload(0x40)\n      dup1\n      swap2\n      sub\n      swap1\n      return\n        /* \"BasicOperations.sol\":120:358  function forLoopYul(uint8 x) external pure returns(uint256 result){... */\n    tag_5:\n      tag_15\n      0x04\n      dup1\n      calldatasize\n      sub\n      dup2\n      add\n      swap1\n      tag_16\n      swap2\n      swap1\n      tag_17\n      jump\t// in\n    tag_16:\n      tag_18\n      jump\t// in\n    tag_15:\n      mload(0x40)\n      tag_19\n      swap2\n      swap1\n      tag_20\n      jump\t// in\n    tag_19:\n      mload(0x40)\n      dup1\n      swap2\n      sub\n      swap1\n      return\n        /* \"BasicOperations.sol\":794:1052  function testPrime() external pure returns (bool){... */\n    tag_7:\n        /* \"BasicOperations.sol\":838:842  bool */\n      0x00\n        /* \"BasicOperations.sol\":861:871  isPrime(2) */\n      tag_22\n        /* \"BasicOperations.sol\":869:870  2 */\n      0x02\n        /* \"BasicOperations.sol\":861:868  isPrime */\n      tag_13\n        /* \"BasicOperations.sol\":861:871  isPrime(2) */\n      jump\t// in\n    tag_22:\n        /* \"BasicOperations.sol\":853:872  require(isPrime(2)) */\n      tag_23\n      jumpi\n      0x00\n      dup1\n      revert\n    tag_23:\n        /* \"BasicOperations.sol\":890:900  isPrime(3) */\n      tag_24\n        /* \"BasicOperations.sol\":898:899  3 */\n      0x03\n        /* \"BasicOperations.sol\":890:897  isPrime */\n      tag_13\n        /* \"BasicOperations.sol\":890:900  isPrime(3) */\n      jump\t// in\n    tag_24:\n        /* \"BasicOperations.sol\":882:901  require(isPrime(3)) */\n      tag_25\n      jumpi\n      0x00\n      dup1\n      revert\n    tag_25:\n        /* \"BasicOperations.sol\":920:930  isPrime(4) */\n      tag_26\n        /* \"BasicOperations.sol\":928:929  4 */\n      0x04\n        /* \"BasicOperations.sol\":920:927  isPrime */\n      tag_13\n        /* \"BasicOperations.sol\":920:930  isPrime(4) */\n      jump\t// in\n    tag_26:\n        /* \"BasicOperations.sol\":919:930  !isPrime(4) */\n      iszero\n        /* \"BasicOperations.sol\":911:931  require(!isPrime(4)) */\n      tag_27\n      jumpi\n      0x00\n      dup1\n      revert\n    tag_27:\n        /* \"BasicOperations.sol\":950:961  isPrime(15) */\n      tag_28\n        /* \"BasicOperations.sol\":958:960  15 */\n      0x0f\n        /* \"BasicOperations.sol\":950:957  isPrime */\n      tag_13\n        /* \"BasicOperations.sol\":950:961  isPrime(15) */\n      jump\t// in\n    tag_28:\n        /* \"BasicOperations.sol\":949:961  !isPrime(15) */\n      iszero\n        /* \"BasicOperations.sol\":941:962  require(!isPrime(15)) */\n      tag_29\n      jumpi\n      0x00\n      dup1\n      revert\n    tag_29:\n        /* \"BasicOperations.sol\":980:991  isPrime(23) */\n      tag_30\n        /* \"BasicOperations.sol\":988:990  23 */\n      0x17\n        /* \"BasicOperations.sol\":980:987  isPrime */\n      tag_13\n        /* \"BasicOperations.sol\":980:991  isPrime(23) */\n      jump\t// in\n    tag_30:\n        /* \"BasicOperations.sol\":972:992  require(isPrime(23)) */\n      tag_31\n      jumpi\n      0x00\n      dup1\n      revert\n    tag_31:\n        /* \"BasicOperations.sol\":1010:1022  isPrime(101) */\n      tag_32\n        /* \"BasicOperations.sol\":1018:1021  101 */\n      0x65\n        /* \"BasicOperations.sol\":1010:1017  isPrime */\n      tag_13\n        /* \"BasicOperations.sol\":1010:1022  isPrime(101) */\n      jump\t// in\n    tag_32:\n        /* \"BasicOperations.sol\":1002:1023  require(isPrime(101)) */\n      tag_33\n      jumpi\n      0x00\n      dup1\n      revert\n    tag_33:\n        /* \"BasicOperations.sol\":1041:1045  true */\n      0x01\n        /* \"BasicOperations.sol\":1034:1045  return true */\n      swap1\n      pop\n        /* \"BasicOperations.sol\":794:1052  function testPrime() external pure returns (bool){... */\n      swap1\n      jump\t// out\n        /* \"BasicOperations.sol\":368:787  function isPrime(uint256 x) public pure returns(bool p) {... */\n    tag_13:\n        /* \"BasicOperations.sol\":416:422  bool p */\n      0x00\n        /* \"BasicOperations.sol\":438:442  true */\n      0x01\n        /* \"BasicOperations.sol\":434:442  p = true */\n      swap1\n      pop\n        /* \"BasicOperations.sol\":502:503  1 */\n      0x01\n        /* \"BasicOperations.sol\":499:500  2 */\n      0x02\n        /* \"BasicOperations.sol\":497:498  x */\n      dup4\n        /* \"BasicOperations.sol\":493:501  div(x,2) */\n      div\n        /* \"BasicOperations.sol\":489:504  add(div(x,2),1) */\n      add\n        /* \"BasicOperations.sol\":538:539  2 */\n      0x02\n        /* \"BasicOperations.sol\":552:752  for{ } lt( i, halfX) {} { ... */\n    tag_35:\n        /* \"BasicOperations.sol\":566:571  halfX */\n      dup2\n        /* \"BasicOperations.sol\":563:564  i */\n      dup2\n        /* \"BasicOperations.sol\":559:572  lt( i, halfX) */\n      lt\n        /* \"BasicOperations.sol\":552:752  for{ } lt( i, halfX) {} { ... */\n      iszero\n      tag_37\n      jumpi\n        /* \"BasicOperations.sol\":615:616  i */\n      dup1\n        /* \"BasicOperations.sol\":613:614  x */\n      dup5\n        /* \"BasicOperations.sol\":609:617  mod(x,i) */\n      mod\n        /* \"BasicOperations.sol\":599:700  if iszero(mod(x,i)){... */\n      tag_38\n      jumpi\n        /* \"BasicOperations.sol\":647:648  0 */\n      0x00\n        /* \"BasicOperations.sol\":644:648  p:=0 */\n      swap3\n      pop\n        /* \"BasicOperations.sol\":673:678  break */\n      jump(tag_37)\n        /* \"BasicOperations.sol\":599:700  if iszero(mod(x,i)){... */\n    tag_38:\n        /* \"BasicOperations.sol\":732:733  1 */\n      0x01\n        /* \"BasicOperations.sol\":730:731  i */\n      dup2\n        /* \"BasicOperations.sol\":726:734  add(i,1) */\n      add\n        /* \"BasicOperations.sol\":721:734  i := add(i,1) */\n      swap1\n      pop\n        /* \"BasicOperations.sol\":552:752  for{ } lt( i, halfX) {} { ... */\n      jump(tag_35)\n    tag_37:\n        /* \"BasicOperations.sol\":462:763  {... */\n      pop\n      pop\n        /* \"BasicOperations.sol\":368:787  function isPrime(uint256 x) public pure returns(bool p) {... */\n      swap2\n      swap1\n      pop\n      jump\t// out\n        /* \"BasicOperations.sol\":120:358  function forLoopYul(uint8 x) external pure returns(uint256 result){... */\n    tag_18:\n        /* \"BasicOperations.sol\":171:185  uint256 result */\n      0x00\n        /* \"BasicOperations.sol\":234:235  0 */\n      dup1\n        /* \"BasicOperations.sol\":220:319  for { let i :=0 } lt(i, x) { i:= add(i,1) } {... */\n    tag_40:\n        /* \"BasicOperations.sol\":244:245  x */\n      dup3\n        /* \"BasicOperations.sol\":241:242  i */\n      dup2\n        /* \"BasicOperations.sol\":238:246  lt(i, x) */\n      lt\n        /* \"BasicOperations.sol\":220:319  for { let i :=0 } lt(i, x) { i:= add(i,1) } {... */\n      iszero\n      tag_42\n      jumpi\n        /* \"BasicOperations.sol\":303:304  2 */\n      0x02\n        /* \"BasicOperations.sol\":295:301  result */\n      dup3\n        /* \"BasicOperations.sol\":291:305  add(result, 2) */\n      add\n        /* \"BasicOperations.sol\":282:305  result:= add(result, 2) */\n      swap2\n      pop\n        /* \"BasicOperations.sol\":259:260  1 */\n      0x01\n        /* \"BasicOperations.sol\":257:258  i */\n      dup2\n        /* \"BasicOperations.sol\":253:261  add(i,1) */\n      add\n        /* \"BasicOperations.sol\":249:261  i:= add(i,1) */\n      swap1\n      pop\n        /* \"BasicOperations.sol\":220:319  for { let i :=0 } lt(i, x) { i:= add(i,1) } {... */\n      jump(tag_40)\n    tag_42:\n        /* \"BasicOperations.sol\":224:237  { let i :=0 } */\n      pop\n        /* \"BasicOperations.sol\":120:358  function forLoopYul(uint8 x) external pure returns(uint256 result){... */\n      swap2\n      swap1\n      pop\n      jump\t// out\n        /* \"#utility.yul\":7:97   */\n    tag_43:\n        /* \"#utility.yul\":41:48   */\n      0x00\n        /* \"#utility.yul\":84:89   */\n      dup2\n        /* \"#utility.yul\":77:90   */\n      iszero\n        /* \"#utility.yul\":70:91   */\n      iszero\n        /* \"#utility.yul\":59:91   */\n      swap1\n      pop\n        /* \"#utility.yul\":7:97   */\n      swap2\n      swap1\n      pop\n      jump\t// out\n        /* \"#utility.yul\":103:212   */\n    tag_44:\n        /* \"#utility.yul\":184:205   */\n      tag_58\n        /* \"#utility.yul\":199:204   */\n      dup2\n        /* \"#utility.yul\":184:205   */\n      tag_43\n      jump\t// in\n    tag_58:\n        /* \"#utility.yul\":179:182   */\n      dup3\n        /* \"#utility.yul\":172:206   */\n      mstore\n        /* \"#utility.yul\":103:212   */\n      pop\n      pop\n      jump\t// out\n        /* \"#utility.yul\":218:428   */\n    tag_9:\n        /* \"#utility.yul\":305:309   */\n      0x00\n        /* \"#utility.yul\":343:345   */\n      0x20\n        /* \"#utility.yul\":332:341   */\n      dup3\n        /* \"#utility.yul\":328:346   */\n      add\n        /* \"#utility.yul\":320:346   */\n      swap1\n      pop\n        /* \"#utility.yul\":356:421   */\n      tag_60\n        /* \"#utility.yul\":418:419   */\n      0x00\n        /* \"#utility.yul\":407:416   */\n      dup4\n        /* \"#utility.yul\":403:420   */\n      add\n        /* \"#utility.yul\":394:400   */\n      dup5\n        /* \"#utility.yul\":356:421   */\n      tag_44\n      jump\t// in\n    tag_60:\n        /* \"#utility.yul\":218:428   */\n      swap3\n      swap2\n      pop\n      pop\n      jump\t// out\n        /* \"#utility.yul\":515:632   */\n    tag_46:\n        /* \"#utility.yul\":624:625   */\n      0x00\n        /* \"#utility.yul\":621:622   */\n      dup1\n        /* \"#utility.yul\":614:626   */\n      revert\n        /* \"#utility.yul\":761:838   */\n    tag_48:\n        /* \"#utility.yul\":798:805   */\n      0x00\n        /* \"#utility.yul\":827:832   */\n      dup2\n        /* \"#utility.yul\":816:832   */\n      swap1\n      pop\n        /* \"#utility.yul\":761:838   */\n      swap2\n      swap1\n      pop\n      jump\t// out\n        /* \"#utility.yul\":844:966   */\n    tag_49:\n        /* \"#utility.yul\":917:941   */\n      tag_66\n        /* \"#utility.yul\":935:940   */\n      dup2\n        /* \"#utility.yul\":917:941   */\n      tag_48\n      jump\t// in\n    tag_66:\n        /* \"#utility.yul\":910:915   */\n      dup2\n        /* \"#utility.yul\":907:942   */\n      eq\n        /* \"#utility.yul\":897:960   */\n      tag_67\n      jumpi\n        /* \"#utility.yul\":956:957   */\n      0x00\n        /* \"#utility.yul\":953:954   */\n      dup1\n        /* \"#utility.yul\":946:958   */\n      revert\n        /* \"#utility.yul\":897:960   */\n    tag_67:\n        /* \"#utility.yul\":844:966   */\n      pop\n      jump\t// out\n        /* \"#utility.yul\":972:1111   */\n    tag_50:\n        /* \"#utility.yul\":1018:1023   */\n      0x00\n        /* \"#utility.yul\":1056:1062   */\n      dup2\n        /* \"#utility.yul\":1043:1063   */\n      calldataload\n        /* \"#utility.yul\":1034:1063   */\n      swap1\n      pop\n        /* \"#utility.yul\":1072:1105   */\n      tag_69\n        /* \"#utility.yul\":1099:1104   */\n      dup2\n        /* \"#utility.yul\":1072:1105   */\n      tag_49\n      jump\t// in\n    tag_69:\n        /* \"#utility.yul\":972:1111   */\n      swap3\n      swap2\n      pop\n      pop\n      jump\t// out\n        /* \"#utility.yul\":1117:1446   */\n    tag_12:\n        /* \"#utility.yul\":1176:1182   */\n      0x00\n        /* \"#utility.yul\":1225:1227   */\n      0x20\n        /* \"#utility.yul\":1213:1222   */\n      dup3\n        /* \"#utility.yul\":1204:1211   */\n      dup5\n        /* \"#utility.yul\":1200:1223   */\n      sub\n        /* \"#utility.yul\":1196:1228   */\n      slt\n        /* \"#utility.yul\":1193:1312   */\n      iszero\n      tag_71\n      jumpi\n        /* \"#utility.yul\":1231:1310   */\n      tag_72\n      tag_46\n      jump\t// in\n    tag_72:\n        /* \"#utility.yul\":1193:1312   */\n    tag_71:\n        /* \"#utility.yul\":1351:1352   */\n      0x00\n        /* \"#utility.yul\":1376:1429   */\n      tag_73\n        /* \"#utility.yul\":1421:1428   */\n      dup5\n        /* \"#utility.yul\":1412:1418   */\n      dup3\n        /* \"#utility.yul\":1401:1410   */\n      dup6\n        /* \"#utility.yul\":1397:1419   */\n      add\n        /* \"#utility.yul\":1376:1429   */\n      tag_50\n      jump\t// in\n    tag_73:\n        /* \"#utility.yul\":1366:1429   */\n      swap2\n      pop\n        /* \"#utility.yul\":1322:1439   */\n      pop\n        /* \"#utility.yul\":1117:1446   */\n      swap3\n      swap2\n      pop\n      pop\n      jump\t// out\n        /* \"#utility.yul\":1452:1538   */\n    tag_51:\n        /* \"#utility.yul\":1487:1494   */\n      0x00\n        /* \"#utility.yul\":1527:1531   */\n      0xff\n        /* \"#utility.yul\":1520:1525   */\n      dup3\n        /* \"#utility.yul\":1516:1532   */\n      and\n        /* \"#utility.yul\":1505:1532   */\n      swap1\n      pop\n        /* \"#utility.yul\":1452:1538   */\n      swap2\n      swap1\n      pop\n      jump\t// out\n        /* \"#utility.yul\":1544:1662   */\n    tag_52:\n        /* \"#utility.yul\":1615:1637   */\n      tag_76\n        /* \"#utility.yul\":1631:1636   */\n      dup2\n        /* \"#utility.yul\":1615:1637   */\n      tag_51\n      jump\t// in\n    tag_76:\n        /* \"#utility.yul\":1608:1613   */\n      dup2\n        /* \"#utility.yul\":1605:1638   */\n      eq\n        /* \"#utility.yul\":1595:1656   */\n      tag_77\n      jumpi\n        /* \"#utility.yul\":1652:1653   */\n      0x00\n        /* \"#utility.yul\":1649:1650   */\n      dup1\n        /* \"#utility.yul\":1642:1654   */\n      revert\n        /* \"#utility.yul\":1595:1656   */\n    tag_77:\n        /* \"#utility.yul\":1544:1662   */\n      pop\n      jump\t// out\n        /* \"#utility.yul\":1668:1803   */\n    tag_53:\n        /* \"#utility.yul\":1712:1717   */\n      0x00\n        /* \"#utility.yul\":1750:1756   */\n      dup2\n        /* \"#utility.yul\":1737:1757   */\n      calldataload\n        /* \"#utility.yul\":1728:1757   */\n      swap1\n      pop\n        /* \"#utility.yul\":1766:1797   */\n      tag_79\n        /* \"#utility.yul\":1791:1796   */\n      dup2\n        /* \"#utility.yul\":1766:1797   */\n      tag_52\n      jump\t// in\n    tag_79:\n        /* \"#utility.yul\":1668:1803   */\n      swap3\n      swap2\n      pop\n      pop\n      jump\t// out\n        /* \"#utility.yul\":1809:2134   */\n    tag_17:\n        /* \"#utility.yul\":1866:1872   */\n      0x00\n        /* \"#utility.yul\":1915:1917   */\n      0x20\n        /* \"#utility.yul\":1903:1912   */\n      dup3\n        /* \"#utility.yul\":1894:1901   */\n      dup5\n        /* \"#utility.yul\":1890:1913   */\n      sub\n        /* \"#utility.yul\":1886:1918   */\n      slt\n        /* \"#utility.yul\":1883:2002   */\n      iszero\n      tag_81\n      jumpi\n        /* \"#utility.yul\":1921:2000   */\n      tag_82\n      tag_46\n      jump\t// in\n    tag_82:\n        /* \"#utility.yul\":1883:2002   */\n    tag_81:\n        /* \"#utility.yul\":2041:2042   */\n      0x00\n        /* \"#utility.yul\":2066:2117   */\n      tag_83\n        /* \"#utility.yul\":2109:2116   */\n      dup5\n        /* \"#utility.yul\":2100:2106   */\n      dup3\n        /* \"#utility.yul\":2089:2098   */\n      dup6\n        /* \"#utility.yul\":2085:2107   */\n      add\n        /* \"#utility.yul\":2066:2117   */\n      tag_53\n      jump\t// in\n    tag_83:\n        /* \"#utility.yul\":2056:2117   */\n      swap2\n      pop\n        /* \"#utility.yul\":2012:2127   */\n      pop\n        /* \"#utility.yul\":1809:2134   */\n      swap3\n      swap2\n      pop\n      pop\n      jump\t// out\n        /* \"#utility.yul\":2140:2258   */\n    tag_54:\n        /* \"#utility.yul\":2227:2251   */\n      tag_85\n        /* \"#utility.yul\":2245:2250   */\n      dup2\n        /* \"#utility.yul\":2227:2251   */\n      tag_48\n      jump\t// in\n    tag_85:\n        /* \"#utility.yul\":2222:2225   */\n      dup3\n        /* \"#utility.yul\":2215:2252   */\n      mstore\n        /* \"#utility.yul\":2140:2258   */\n      pop\n      pop\n      jump\t// out\n        /* \"#utility.yul\":2264:2486   */\n    tag_20:\n        /* \"#utility.yul\":2357:2361   */\n      0x00\n        /* \"#utility.yul\":2395:2397   */\n      0x20\n        /* \"#utility.yul\":2384:2393   */\n      dup3\n        /* \"#utility.yul\":2380:2398   */\n      add\n        /* \"#utility.yul\":2372:2398   */\n      swap1\n      pop\n        /* \"#utility.yul\":2408:2479   */\n      tag_87\n        /* \"#utility.yul\":2476:2477   */\n      0x00\n        /* \"#utility.yul\":2465:2474   */\n      dup4\n        /* \"#utility.yul\":2461:2478   */\n      add\n        /* \"#utility.yul\":2452:2458   */\n      dup5\n        /* \"#utility.yul\":2408:2479   */\n      tag_54\n      jump\t// in\n    tag_87:\n        /* \"#utility.yul\":2264:2486   */\n      swap3\n      swap2\n      pop\n      pop\n      jump\t// out\n\n    auxdata: 0xa264697066735822122049a6bf7d13303f70fdc0d908e2240b20d02d335e71765c1e3c8c713c925910d564736f6c63430008110033\n}\n",
				"bytecode": {
					"linkReferences": {},
					"object": "608060405234801561001057600080fd5b50610302806100206000396000f3fe608060405234801561001057600080fd5b50600436106100415760003560e01c806322cddfc2146100465780634270349414610064578063dbec04bc14610094575b600080fd5b61004e6100c4565b60405161005b91906101b9565b60405180910390f35b61007e6004803603810190610079919061020f565b610141565b60405161008b91906101b9565b60405180910390f35b6100ae60048036038101906100a99190610275565b61017b565b6040516100bb91906102b1565b60405180910390f35b60006100d06002610141565b6100d957600080fd5b6100e36003610141565b6100ec57600080fd5b6100f66004610141565b1561010057600080fd5b61010a600f610141565b1561011457600080fd5b61011e6017610141565b61012757600080fd5b6101316065610141565b61013a57600080fd5b6001905090565b6000600190506001600283040160025b81811015610174578084066101695760009250610174565b600181019050610151565b5050919050565b6000805b828110156101985760028201915060018101905061017f565b50919050565b60008115159050919050565b6101b38161019e565b82525050565b60006020820190506101ce60008301846101aa565b92915050565b600080fd5b6000819050919050565b6101ec816101d9565b81146101f757600080fd5b50565b600081359050610209816101e3565b92915050565b600060208284031215610225576102246101d4565b5b6000610233848285016101fa565b91505092915050565b600060ff82169050919050565b6102528161023c565b811461025d57600080fd5b50565b60008135905061026f81610249565b92915050565b60006020828403121561028b5761028a6101d4565b5b600061029984828501610260565b91505092915050565b6102ab816101d9565b82525050565b60006020820190506102c660008301846102a2565b9291505056fea264697066735822122049a6bf7d13303f70fdc0d908e2240b20d02d335e71765c1e3c8c713c925910d564736f6c63430008110033",
					"opcodes": "PUSH1 0x80 PUSH1 0x40 MSTORE CALLVALUE DUP1 ISZERO PUSH2 0x10 JUMPI PUSH1 0x0 DUP1 REVERT JUMPDEST POP PUSH2 0x302 DUP1 PUSH2 0x20 PUSH1 0x0 CODECOPY PUSH1 0x0 RETURN INVALID PUSH1 0x80 PUSH1 0x40 MSTORE CALLVALUE DUP1 ISZERO PUSH2 0x10 JUMPI PUSH1 0x0 DUP1 REVERT JUMPDEST POP PUSH1 0x4 CALLDATASIZE LT PUSH2 0x41 JUMPI PUSH1 0x0 CALLDATALOAD PUSH1 0xE0 SHR DUP1 PUSH4 0x22CDDFC2 EQ PUSH2 0x46 JUMPI DUP1 PUSH4 0x42703494 EQ PUSH2 0x64 JUMPI DUP1 PUSH4 0xDBEC04BC EQ PUSH2 0x94 JUMPI JUMPDEST PUSH1 0x0 DUP1 REVERT JUMPDEST PUSH2 0x4E PUSH2 0xC4 JUMP JUMPDEST PUSH1 0x40 MLOAD PUSH2 0x5B SWAP2 SWAP1 PUSH2 0x1B9 JUMP JUMPDEST PUSH1 0x40 MLOAD DUP1 SWAP2 SUB SWAP1 RETURN JUMPDEST PUSH2 0x7E PUSH1 0x4 DUP1 CALLDATASIZE SUB DUP2 ADD SWAP1 PUSH2 0x79 SWAP2 SWAP1 PUSH2 0x20F JUMP JUMPDEST PUSH2 0x141 JUMP JUMPDEST PUSH1 0x40 MLOAD PUSH2 0x8B SWAP2 SWAP1 PUSH2 0x1B9 JUMP JUMPDEST PUSH1 0x40 MLOAD DUP1 SWAP2 SUB SWAP1 RETURN JUMPDEST PUSH2 0xAE PUSH1 0x4 DUP1 CALLDATASIZE SUB DUP2 ADD SWAP1 PUSH2 0xA9 SWAP2 SWAP1 PUSH2 0x275 JUMP JUMPDEST PUSH2 0x17B JUMP JUMPDEST PUSH1 0x40 MLOAD PUSH2 0xBB SWAP2 SWAP1 PUSH2 0x2B1 JUMP JUMPDEST PUSH1 0x40 MLOAD DUP1 SWAP2 SUB SWAP1 RETURN JUMPDEST PUSH1 0x0 PUSH2 0xD0 PUSH1 0x2 PUSH2 0x141 JUMP JUMPDEST PUSH2 0xD9 JUMPI PUSH1 0x0 DUP1 REVERT JUMPDEST PUSH2 0xE3 PUSH1 0x3 PUSH2 0x141 JUMP JUMPDEST PUSH2 0xEC JUMPI PUSH1 0x0 DUP1 REVERT JUMPDEST PUSH2 0xF6 PUSH1 0x4 PUSH2 0x141 JUMP JUMPDEST ISZERO PUSH2 0x100 JUMPI PUSH1 0x0 DUP1 REVERT JUMPDEST PUSH2 0x10A PUSH1 0xF PUSH2 0x141 JUMP JUMPDEST ISZERO PUSH2 0x114 JUMPI PUSH1 0x0 DUP1 REVERT JUMPDEST PUSH2 0x11E PUSH1 0x17 PUSH2 0x141 JUMP JUMPDEST PUSH2 0x127 JUMPI PUSH1 0x0 DUP1 REVERT JUMPDEST PUSH2 0x131 PUSH1 0x65 PUSH2 0x141 JUMP JUMPDEST PUSH2 0x13A JUMPI PUSH1 0x0 DUP1 REVERT JUMPDEST PUSH1 0x1 SWAP1 POP SWAP1 JUMP JUMPDEST PUSH1 0x0 PUSH1 0x1 SWAP1 POP PUSH1 0x1 PUSH1 0x2 DUP4 DIV ADD PUSH1 0x2 JUMPDEST DUP2 DUP2 LT ISZERO PUSH2 0x174 JUMPI DUP1 DUP5 MOD PUSH2 0x169 JUMPI PUSH1 0x0 SWAP3 POP PUSH2 0x174 JUMP JUMPDEST PUSH1 0x1 DUP2 ADD SWAP1 POP PUSH2 0x151 JUMP JUMPDEST POP POP SWAP2 SWAP1 POP JUMP JUMPDEST PUSH1 0x0 DUP1 JUMPDEST DUP3 DUP2 LT ISZERO PUSH2 0x198 JUMPI PUSH1 0x2 DUP3 ADD SWAP2 POP PUSH1 0x1 DUP2 ADD SWAP1 POP PUSH2 0x17F JUMP JUMPDEST POP SWAP2 SWAP1 POP JUMP JUMPDEST PUSH1 0x0 DUP2 ISZERO ISZERO SWAP1 POP SWAP2 SWAP1 POP JUMP JUMPDEST PUSH2 0x1B3 DUP2 PUSH2 0x19E JUMP JUMPDEST DUP3 MSTORE POP POP JUMP JUMPDEST PUSH1 0x0 PUSH1 0x20 DUP3 ADD SWAP1 POP PUSH2 0x1CE PUSH1 0x0 DUP4 ADD DUP5 PUSH2 0x1AA JUMP JUMPDEST SWAP3 SWAP2 POP POP JUMP JUMPDEST PUSH1 0x0 DUP1 REVERT JUMPDEST PUSH1 0x0 DUP2 SWAP1 POP SWAP2 SWAP1 POP JUMP JUMPDEST PUSH2 0x1EC DUP2 PUSH2 0x1D9 JUMP JUMPDEST DUP2 EQ PUSH2 0x1F7 JUMPI PUSH1 0x0 DUP1 REVERT JUMPDEST POP JUMP JUMPDEST PUSH1 0x0 DUP2 CALLDATALOAD SWAP1 POP PUSH2 0x209 DUP2 PUSH2 0x1E3 JUMP JUMPDEST SWAP3 SWAP2 POP POP JUMP JUMPDEST PUSH1 0x0 PUSH1 0x20 DUP3 DUP5 SUB SLT ISZERO PUSH2 0x225 JUMPI PUSH2 0x224 PUSH2 0x1D4 JUMP JUMPDEST JUMPDEST PUSH1 0x0 PUSH2 0x233 DUP5 DUP3 DUP6 ADD PUSH2 0x1FA JUMP JUMPDEST SWAP2 POP POP SWAP3 SWAP2 POP POP JUMP JUMPDEST PUSH1 0x0 PUSH1 0xFF DUP3 AND SWAP1 POP SWAP2 SWAP1 POP JUMP JUMPDEST PUSH2 0x252 DUP2 PUSH2 0x23C JUMP JUMPDEST DUP2 EQ PUSH2 0x25D JUMPI PUSH1 0x0 DUP1 REVERT JUMPDEST POP JUMP JUMPDEST PUSH1 0x0 DUP2 CALLDATALOAD SWAP1 POP PUSH2 0x26F DUP2 PUSH2 0x249 JUMP JUMPDEST SWAP3 SWAP2 POP POP JUMP JUMPDEST PUSH1 0x0 PUSH1 0x20 DUP3 DUP5 SUB SLT ISZERO PUSH2 0x28B JUMPI PUSH2 0x28A PUSH2 0x1D4 JUMP JUMPDEST JUMPDEST PUSH1 0x0 PUSH2 0x299 DUP5 DUP3 DUP6 ADD PUSH2 0x260 JUMP JUMPDEST SWAP2 POP POP SWAP3 SWAP2 POP POP JUMP JUMPDEST PUSH2 0x2AB DUP2 PUSH2 0x1D9 JUMP JUMPDEST DUP3 MSTORE POP POP JUMP JUMPDEST PUSH1 0x0 PUSH1 0x20 DUP3 ADD SWAP1 POP PUSH2 0x2C6 PUSH1 0x0 DUP4 ADD DUP5 PUSH2 0x2A2 JUMP JUMPDEST SWAP3 SWAP2 POP POP JUMP INVALID LOG2 PUSH5 0x6970667358 0x22 SLT KECCAK256 0x49 0xA6 0xBF PUSH30 0x13303F70FDC0D908E2240B20D02D335E71765C1E3C8C713C925910D56473 PUSH16 0x6C634300081100330000000000000000 "
				},
				"gasEstimates": {
					"creation": {
						"codeDepositCost": "154000",
						"executionCost": "202",
						"totalCost": "154202"
					},
					"external": {
						"forLoopYul(uint8)": "infinite",
						"isPrime(uint256)": "infinite",
						"testPrime()": "infinite"
					}
				},
				"methodIdentifiers": {
					"forLoopYul(uint8)": "dbec04bc",
					"isPrime(uint256)": "42703494",
					"testPrime()": "22cddfc2"
				}
			},
			"storageLayout": {
				"storage": [],
				"types": null
			},
			"userdoc": {
				"kind": "user",
				"methods": {},
				"version": 1
			}
		}
	}
}