{
	"StorageOne.sol": {
		"StorageBasics": {
			"abi": [
				{
					"inputs": [],
					"name": "getP",
					"outputs": [
						{
							"internalType": "uint256",
							"name": "",
							"type": "uint256"
						}
					],
					"stateMutability": "view",
					"type": "function"
				},
				{
					"inputs": [
						{
							"internalType": "uint256",
							"name": "slot",
							"type": "uint256"
						}
					],
					"name": "getVarYul",
					"outputs": [
						{
							"internalType": "bytes32",
							"name": "ret",
							"type": "bytes32"
						}
					],
					"stateMutability": "view",
					"type": "function"
				},
				{
					"inputs": [],
					"name": "getX",
					"outputs": [
						{
							"internalType": "uint256",
							"name": "",
							"type": "uint256"
						}
					],
					"stateMutability": "view",
					"type": "function"
				},
				{
					"inputs": [
						{
							"internalType": "uint256",
							"name": "slot",
							"type": "uint256"
						},
						{
							"internalType": "uint256",
							"name": "value",
							"type": "uint256"
						}
					],
					"name": "setVarYul",
					"outputs": [],
					"stateMutability": "nonpayable",
					"type": "function"
				},
				{
					"inputs": [
						{
							"internalType": "uint256",
							"name": "newVal",
							"type": "uint256"
						}
					],
					"name": "setX",
					"outputs": [],
					"stateMutability": "nonpayable",
					"type": "function"
				}
			],
			"devdoc": {
				"kind": "dev",
				"methods": {},
				"version": 1
			},
			"evm": {
				"assembly": "    /* \"StorageOne.sol\":61:674  contract StorageBasics {... */\n  mstore(0x40, 0x80)\n    /* \"StorageOne.sol\":102:103  2 */\n  0x02\n    /* \"StorageOne.sol\":90:103  uint256 x = 2 */\n  0x00\n  sstore\n    /* \"StorageOne.sol\":121:123  13 */\n  0x0d\n    /* \"StorageOne.sol\":109:123  uint256 y = 13 */\n  0x01\n  sstore\n    /* \"StorageOne.sol\":141:143  54 */\n  0x36\n    /* \"StorageOne.sol\":129:143  uint256 z = 54 */\n  0x02\n  sstore\n    /* \"StorageOne.sol\":61:674  contract StorageBasics {... */\n  callvalue\n  dup1\n  iszero\n  tag_1\n  jumpi\n  0x00\n  dup1\n  revert\ntag_1:\n  pop\n  dataSize(sub_0)\n  dup1\n  dataOffset(sub_0)\n  0x00\n  codecopy\n  0x00\n  return\nstop\n\nsub_0: assembly {\n        /* \"StorageOne.sol\":61:674  contract StorageBasics {... */\n      mstore(0x40, 0x80)\n      callvalue\n      dup1\n      iszero\n      tag_1\n      jumpi\n      0x00\n      dup1\n      revert\n    tag_1:\n      pop\n      jumpi(tag_2, lt(calldatasize, 0x04))\n      shr(0xe0, calldataload(0x00))\n      dup1\n      0x038e3574\n      eq\n      tag_3\n      jumpi\n      dup1\n      0x4018d9aa\n      eq\n      tag_4\n      jumpi\n      dup1\n      0x4686a5b1\n      eq\n      tag_5\n      jumpi\n      dup1\n      0x5197c7aa\n      eq\n      tag_6\n      jumpi\n      dup1\n      0x5fa96654\n      eq\n      tag_7\n      jumpi\n    tag_2:\n      0x00\n      dup1\n      revert\n        /* \"StorageOne.sol\":254:390  function getVarYul(uint256 slot) external view returns (bytes32 ret) {... */\n    tag_3:\n      tag_8\n      0x04\n      dup1\n      calldatasize\n      sub\n      dup2\n      add\n      swap1\n      tag_9\n      swap2\n      swap1\n      tag_10\n      jump\t// in\n    tag_9:\n      tag_11\n      jump\t// in\n    tag_8:\n      mload(0x40)\n      tag_12\n      swap2\n      swap1\n      tag_13\n      jump\t// in\n    tag_12:\n      mload(0x40)\n      dup1\n      swap2\n      sub\n      swap1\n      return\n        /* \"StorageOne.sol\":527:593  function setX(uint256 newVal) external {... */\n    tag_4:\n      tag_14\n      0x04\n      dup1\n      calldatasize\n      sub\n      dup2\n      add\n      swap1\n      tag_15\n      swap2\n      swap1\n      tag_10\n      jump\t// in\n    tag_15:\n      tag_16\n      jump\t// in\n    tag_14:\n      stop\n        /* \"StorageOne.sol\":396:521  function setVarYul(uint256 slot, uint256 value) external {... */\n    tag_5:\n      tag_17\n      0x04\n      dup1\n      calldatasize\n      sub\n      dup2\n      add\n      swap1\n      tag_18\n      swap2\n      swap1\n      tag_19\n      jump\t// in\n    tag_18:\n      tag_20\n      jump\t// in\n    tag_17:\n      stop\n        /* \"StorageOne.sol\":599:672  function getX() external view returns (uint256) {... */\n    tag_6:\n      tag_21\n      tag_22\n      jump\t// in\n    tag_21:\n      mload(0x40)\n      tag_23\n      swap2\n      swap1\n      tag_24\n      jump\t// in\n    tag_23:\n      mload(0x40)\n      dup1\n      swap2\n      sub\n      swap1\n      return\n        /* \"StorageOne.sol\":165:248  function getP() external view returns (uint256) {... */\n    tag_7:\n      tag_25\n      tag_26\n      jump\t// in\n    tag_25:\n      mload(0x40)\n      tag_27\n      swap2\n      swap1\n      tag_24\n      jump\t// in\n    tag_27:\n      mload(0x40)\n      dup1\n      swap2\n      sub\n      swap1\n      return\n        /* \"StorageOne.sol\":254:390  function getVarYul(uint256 slot) external view returns (bytes32 ret) {... */\n    tag_11:\n        /* \"StorageOne.sol\":310:321  bytes32 ret */\n      0x00\n        /* \"StorageOne.sol\":369:373  slot */\n      dup2\n        /* \"StorageOne.sol\":363:374  sload(slot) */\n      sload\n        /* \"StorageOne.sol\":356:374  ret := sload(slot) */\n      swap1\n      pop\n        /* \"StorageOne.sol\":254:390  function getVarYul(uint256 slot) external view returns (bytes32 ret) {... */\n      swap2\n      swap1\n      pop\n      jump\t// out\n        /* \"StorageOne.sol\":527:593  function setX(uint256 newVal) external {... */\n    tag_16:\n        /* \"StorageOne.sol\":580:586  newVal */\n      dup1\n        /* \"StorageOne.sol\":576:577  x */\n      0x00\n        /* \"StorageOne.sol\":576:586  x = newVal */\n      dup2\n      swap1\n      sstore\n      pop\n        /* \"StorageOne.sol\":527:593  function setX(uint256 newVal) external {... */\n      pop\n      jump\t// out\n        /* \"StorageOne.sol\":396:521  function setVarYul(uint256 slot, uint256 value) external {... */\n    tag_20:\n        /* \"StorageOne.sol\":499:504  value */\n      dup1\n        /* \"StorageOne.sol\":493:497  slot */\n      dup3\n        /* \"StorageOne.sol\":486:505  sstore(slot, value) */\n      sstore\n        /* \"StorageOne.sol\":396:521  function setVarYul(uint256 slot, uint256 value) external {... */\n      pop\n      pop\n      jump\t// out\n        /* \"StorageOne.sol\":599:672  function getX() external view returns (uint256) {... */\n    tag_22:\n        /* \"StorageOne.sol\":638:645  uint256 */\n      0x00\n        /* \"StorageOne.sol\":664:665  x */\n      dup1\n      sload\n        /* \"StorageOne.sol\":657:665  return x */\n      swap1\n      pop\n        /* \"StorageOne.sol\":599:672  function getX() external view returns (uint256) {... */\n      swap1\n      jump\t// out\n        /* \"StorageOne.sol\":165:248  function getP() external view returns (uint256) {... */\n    tag_26:\n        /* \"StorageOne.sol\":204:211  uint256 */\n      0x00\n        /* \"StorageOne.sol\":230:231  p */\n      sload(0x03)\n        /* \"StorageOne.sol\":223:231  return p */\n      swap1\n      pop\n        /* \"StorageOne.sol\":165:248  function getP() external view returns (uint256) {... */\n      swap1\n      jump\t// out\n        /* \"#utility.yul\":88:205   */\n    tag_34:\n        /* \"#utility.yul\":197:198   */\n      0x00\n        /* \"#utility.yul\":194:195   */\n      dup1\n        /* \"#utility.yul\":187:199   */\n      revert\n        /* \"#utility.yul\":334:411   */\n    tag_36:\n        /* \"#utility.yul\":371:378   */\n      0x00\n        /* \"#utility.yul\":400:405   */\n      dup2\n        /* \"#utility.yul\":389:405   */\n      swap1\n      pop\n        /* \"#utility.yul\":334:411   */\n      swap2\n      swap1\n      pop\n      jump\t// out\n        /* \"#utility.yul\":417:539   */\n    tag_37:\n        /* \"#utility.yul\":490:514   */\n      tag_48\n        /* \"#utility.yul\":508:513   */\n      dup2\n        /* \"#utility.yul\":490:514   */\n      tag_36\n      jump\t// in\n    tag_48:\n        /* \"#utility.yul\":483:488   */\n      dup2\n        /* \"#utility.yul\":480:515   */\n      eq\n        /* \"#utility.yul\":470:533   */\n      tag_49\n      jumpi\n        /* \"#utility.yul\":529:530   */\n      0x00\n        /* \"#utility.yul\":526:527   */\n      dup1\n        /* \"#utility.yul\":519:531   */\n      revert\n        /* \"#utility.yul\":470:533   */\n    tag_49:\n        /* \"#utility.yul\":417:539   */\n      pop\n      jump\t// out\n        /* \"#utility.yul\":545:684   */\n    tag_38:\n        /* \"#utility.yul\":591:596   */\n      0x00\n        /* \"#utility.yul\":629:635   */\n      dup2\n        /* \"#utility.yul\":616:636   */\n      calldataload\n        /* \"#utility.yul\":607:636   */\n      swap1\n      pop\n        /* \"#utility.yul\":645:678   */\n      tag_51\n        /* \"#utility.yul\":672:677   */\n      dup2\n        /* \"#utility.yul\":645:678   */\n      tag_37\n      jump\t// in\n    tag_51:\n        /* \"#utility.yul\":545:684   */\n      swap3\n      swap2\n      pop\n      pop\n      jump\t// out\n        /* \"#utility.yul\":690:1019   */\n    tag_10:\n        /* \"#utility.yul\":749:755   */\n      0x00\n        /* \"#utility.yul\":798:800   */\n      0x20\n        /* \"#utility.yul\":786:795   */\n      dup3\n        /* \"#utility.yul\":777:784   */\n      dup5\n        /* \"#utility.yul\":773:796   */\n      sub\n        /* \"#utility.yul\":769:801   */\n      slt\n        /* \"#utility.yul\":766:885   */\n      iszero\n      tag_53\n      jumpi\n        /* \"#utility.yul\":804:883   */\n      tag_54\n      tag_34\n      jump\t// in\n    tag_54:\n        /* \"#utility.yul\":766:885   */\n    tag_53:\n        /* \"#utility.yul\":924:925   */\n      0x00\n        /* \"#utility.yul\":949:1002   */\n      tag_55\n        /* \"#utility.yul\":994:1001   */\n      dup5\n        /* \"#utility.yul\":985:991   */\n      dup3\n        /* \"#utility.yul\":974:983   */\n      dup6\n        /* \"#utility.yul\":970:992   */\n      add\n        /* \"#utility.yul\":949:1002   */\n      tag_38\n      jump\t// in\n    tag_55:\n        /* \"#utility.yul\":939:1002   */\n      swap2\n      pop\n        /* \"#utility.yul\":895:1012   */\n      pop\n        /* \"#utility.yul\":690:1019   */\n      swap3\n      swap2\n      pop\n      pop\n      jump\t// out\n        /* \"#utility.yul\":1025:1102   */\n    tag_39:\n        /* \"#utility.yul\":1062:1069   */\n      0x00\n        /* \"#utility.yul\":1091:1096   */\n      dup2\n        /* \"#utility.yul\":1080:1096   */\n      swap1\n      pop\n        /* \"#utility.yul\":1025:1102   */\n      swap2\n      swap1\n      pop\n      jump\t// out\n        /* \"#utility.yul\":1108:1226   */\n    tag_40:\n        /* \"#utility.yul\":1195:1219   */\n      tag_58\n        /* \"#utility.yul\":1213:1218   */\n      dup2\n        /* \"#utility.yul\":1195:1219   */\n      tag_39\n      jump\t// in\n    tag_58:\n        /* \"#utility.yul\":1190:1193   */\n      dup3\n        /* \"#utility.yul\":1183:1220   */\n      mstore\n        /* \"#utility.yul\":1108:1226   */\n      pop\n      pop\n      jump\t// out\n        /* \"#utility.yul\":1232:1454   */\n    tag_13:\n        /* \"#utility.yul\":1325:1329   */\n      0x00\n        /* \"#utility.yul\":1363:1365   */\n      0x20\n        /* \"#utility.yul\":1352:1361   */\n      dup3\n        /* \"#utility.yul\":1348:1366   */\n      add\n        /* \"#utility.yul\":1340:1366   */\n      swap1\n      pop\n        /* \"#utility.yul\":1376:1447   */\n      tag_60\n        /* \"#utility.yul\":1444:1445   */\n      0x00\n        /* \"#utility.yul\":1433:1442   */\n      dup4\n        /* \"#utility.yul\":1429:1446   */\n      add\n        /* \"#utility.yul\":1420:1426   */\n      dup5\n        /* \"#utility.yul\":1376:1447   */\n      tag_40\n      jump\t// in\n    tag_60:\n        /* \"#utility.yul\":1232:1454   */\n      swap3\n      swap2\n      pop\n      pop\n      jump\t// out\n        /* \"#utility.yul\":1460:1934   */\n    tag_19:\n        /* \"#utility.yul\":1528:1534   */\n      0x00\n        /* \"#utility.yul\":1536:1542   */\n      dup1\n        /* \"#utility.yul\":1585:1587   */\n      0x40\n        /* \"#utility.yul\":1573:1582   */\n      dup4\n        /* \"#utility.yul\":1564:1571   */\n      dup6\n        /* \"#utility.yul\":1560:1583   */\n      sub\n        /* \"#utility.yul\":1556:1588   */\n      slt\n        /* \"#utility.yul\":1553:1672   */\n      iszero\n      tag_62\n      jumpi\n        /* \"#utility.yul\":1591:1670   */\n      tag_63\n      tag_34\n      jump\t// in\n    tag_63:\n        /* \"#utility.yul\":1553:1672   */\n    tag_62:\n        /* \"#utility.yul\":1711:1712   */\n      0x00\n        /* \"#utility.yul\":1736:1789   */\n      tag_64\n        /* \"#utility.yul\":1781:1788   */\n      dup6\n        /* \"#utility.yul\":1772:1778   */\n      dup3\n        /* \"#utility.yul\":1761:1770   */\n      dup7\n        /* \"#utility.yul\":1757:1779   */\n      add\n        /* \"#utility.yul\":1736:1789   */\n      tag_38\n      jump\t// in\n    tag_64:\n        /* \"#utility.yul\":1726:1789   */\n      swap3\n      pop\n        /* \"#utility.yul\":1682:1799   */\n      pop\n        /* \"#utility.yul\":1838:1840   */\n      0x20\n        /* \"#utility.yul\":1864:1917   */\n      tag_65\n        /* \"#utility.yul\":1909:1916   */\n      dup6\n        /* \"#utility.yul\":1900:1906   */\n      dup3\n        /* \"#utility.yul\":1889:1898   */\n      dup7\n        /* \"#utility.yul\":1885:1907   */\n      add\n        /* \"#utility.yul\":1864:1917   */\n      tag_38\n      jump\t// in\n    tag_65:\n        /* \"#utility.yul\":1854:1917   */\n      swap2\n      pop\n        /* \"#utility.yul\":1809:1927   */\n      pop\n        /* \"#utility.yul\":1460:1934   */\n      swap3\n      pop\n      swap3\n      swap1\n      pop\n      jump\t// out\n        /* \"#utility.yul\":1940:2058   */\n    tag_41:\n        /* \"#utility.yul\":2027:2051   */\n      tag_67\n        /* \"#utility.yul\":2045:2050   */\n      dup2\n        /* \"#utility.yul\":2027:2051   */\n      tag_36\n      jump\t// in\n    tag_67:\n        /* \"#utility.yul\":2022:2025   */\n      dup3\n        /* \"#utility.yul\":2015:2052   */\n      mstore\n        /* \"#utility.yul\":1940:2058   */\n      pop\n      pop\n      jump\t// out\n        /* \"#utility.yul\":2064:2286   */\n    tag_24:\n        /* \"#utility.yul\":2157:2161   */\n      0x00\n        /* \"#utility.yul\":2195:2197   */\n      0x20\n        /* \"#utility.yul\":2184:2193   */\n      dup3\n        /* \"#utility.yul\":2180:2198   */\n      add\n        /* \"#utility.yul\":2172:2198   */\n      swap1\n      pop\n        /* \"#utility.yul\":2208:2279   */\n      tag_69\n        /* \"#utility.yul\":2276:2277   */\n      0x00\n        /* \"#utility.yul\":2265:2274   */\n      dup4\n        /* \"#utility.yul\":2261:2278   */\n      add\n        /* \"#utility.yul\":2252:2258   */\n      dup5\n        /* \"#utility.yul\":2208:2279   */\n      tag_41\n      jump\t// in\n    tag_69:\n        /* \"#utility.yul\":2064:2286   */\n      swap3\n      swap2\n      pop\n      pop\n      jump\t// out\n\n    auxdata: 0xa26469706673582212202dbd36f5bff8af46b3104c288a97bfc512bf75be6077f0412f6a3c2a0554790264736f6c63430008110033\n}\n",
				"bytecode": {
					"linkReferences": {},
					"object": "60806040526002600055600d600155603660025534801561001f57600080fd5b5061026b8061002f6000396000f3fe608060405234801561001057600080fd5b50600436106100575760003560e01c8063038e35741461005c5780634018d9aa1461008c5780634686a5b1146100a85780635197c7aa146100c45780635fa96654146100e2575b600080fd5b6100766004803603810190610071919061016a565b610100565b60405161008391906101b0565b60405180910390f35b6100a660048036038101906100a1919061016a565b61010b565b005b6100c260048036038101906100bd91906101cb565b610115565b005b6100cc61011c565b6040516100d9919061021a565b60405180910390f35b6100ea610125565b6040516100f7919061021a565b60405180910390f35b600081549050919050565b8060008190555050565b8082555050565b60008054905090565b6000600354905090565b600080fd5b6000819050919050565b61014781610134565b811461015257600080fd5b50565b6000813590506101648161013e565b92915050565b6000602082840312156101805761017f61012f565b5b600061018e84828501610155565b91505092915050565b6000819050919050565b6101aa81610197565b82525050565b60006020820190506101c560008301846101a1565b92915050565b600080604083850312156101e2576101e161012f565b5b60006101f085828601610155565b925050602061020185828601610155565b9150509250929050565b61021481610134565b82525050565b600060208201905061022f600083018461020b565b9291505056fea26469706673582212202dbd36f5bff8af46b3104c288a97bfc512bf75be6077f0412f6a3c2a0554790264736f6c63430008110033",
					"opcodes": "PUSH1 0x80 PUSH1 0x40 MSTORE PUSH1 0x2 PUSH1 0x0 SSTORE PUSH1 0xD PUSH1 0x1 SSTORE PUSH1 0x36 PUSH1 0x2 SSTORE CALLVALUE DUP1 ISZERO PUSH2 0x1F JUMPI PUSH1 0x0 DUP1 REVERT JUMPDEST POP PUSH2 0x26B DUP1 PUSH2 0x2F PUSH1 0x0 CODECOPY PUSH1 0x0 RETURN INVALID PUSH1 0x80 PUSH1 0x40 MSTORE CALLVALUE DUP1 ISZERO PUSH2 0x10 JUMPI PUSH1 0x0 DUP1 REVERT JUMPDEST POP PUSH1 0x4 CALLDATASIZE LT PUSH2 0x57 JUMPI PUSH1 0x0 CALLDATALOAD PUSH1 0xE0 SHR DUP1 PUSH4 0x38E3574 EQ PUSH2 0x5C JUMPI DUP1 PUSH4 0x4018D9AA EQ PUSH2 0x8C JUMPI DUP1 PUSH4 0x4686A5B1 EQ PUSH2 0xA8 JUMPI DUP1 PUSH4 0x5197C7AA EQ PUSH2 0xC4 JUMPI DUP1 PUSH4 0x5FA96654 EQ PUSH2 0xE2 JUMPI JUMPDEST PUSH1 0x0 DUP1 REVERT JUMPDEST PUSH2 0x76 PUSH1 0x4 DUP1 CALLDATASIZE SUB DUP2 ADD SWAP1 PUSH2 0x71 SWAP2 SWAP1 PUSH2 0x16A JUMP JUMPDEST PUSH2 0x100 JUMP JUMPDEST PUSH1 0x40 MLOAD PUSH2 0x83 SWAP2 SWAP1 PUSH2 0x1B0 JUMP JUMPDEST PUSH1 0x40 MLOAD DUP1 SWAP2 SUB SWAP1 RETURN JUMPDEST PUSH2 0xA6 PUSH1 0x4 DUP1 CALLDATASIZE SUB DUP2 ADD SWAP1 PUSH2 0xA1 SWAP2 SWAP1 PUSH2 0x16A JUMP JUMPDEST PUSH2 0x10B JUMP JUMPDEST STOP JUMPDEST PUSH2 0xC2 PUSH1 0x4 DUP1 CALLDATASIZE SUB DUP2 ADD SWAP1 PUSH2 0xBD SWAP2 SWAP1 PUSH2 0x1CB JUMP JUMPDEST PUSH2 0x115 JUMP JUMPDEST STOP JUMPDEST PUSH2 0xCC PUSH2 0x11C JUMP JUMPDEST PUSH1 0x40 MLOAD PUSH2 0xD9 SWAP2 SWAP1 PUSH2 0x21A JUMP JUMPDEST PUSH1 0x40 MLOAD DUP1 SWAP2 SUB SWAP1 RETURN JUMPDEST PUSH2 0xEA PUSH2 0x125 JUMP JUMPDEST PUSH1 0x40 MLOAD PUSH2 0xF7 SWAP2 SWAP1 PUSH2 0x21A JUMP JUMPDEST PUSH1 0x40 MLOAD DUP1 SWAP2 SUB SWAP1 RETURN JUMPDEST PUSH1 0x0 DUP2 SLOAD SWAP1 POP SWAP2 SWAP1 POP JUMP JUMPDEST DUP1 PUSH1 0x0 DUP2 SWAP1 SSTORE POP POP JUMP JUMPDEST DUP1 DUP3 SSTORE POP POP JUMP JUMPDEST PUSH1 0x0 DUP1 SLOAD SWAP1 POP SWAP1 JUMP JUMPDEST PUSH1 0x0 PUSH1 0x3 SLOAD SWAP1 POP SWAP1 JUMP JUMPDEST PUSH1 0x0 DUP1 REVERT JUMPDEST PUSH1 0x0 DUP2 SWAP1 POP SWAP2 SWAP1 POP JUMP JUMPDEST PUSH2 0x147 DUP2 PUSH2 0x134 JUMP JUMPDEST DUP2 EQ PUSH2 0x152 JUMPI PUSH1 0x0 DUP1 REVERT JUMPDEST POP JUMP JUMPDEST PUSH1 0x0 DUP2 CALLDATALOAD SWAP1 POP PUSH2 0x164 DUP2 PUSH2 0x13E JUMP JUMPDEST SWAP3 SWAP2 POP POP JUMP JUMPDEST PUSH1 0x0 PUSH1 0x20 DUP3 DUP5 SUB SLT ISZERO PUSH2 0x180 JUMPI PUSH2 0x17F PUSH2 0x12F JUMP JUMPDEST JUMPDEST PUSH1 0x0 PUSH2 0x18E DUP5 DUP3 DUP6 ADD PUSH2 0x155 JUMP JUMPDEST SWAP2 POP POP SWAP3 SWAP2 POP POP JUMP JUMPDEST PUSH1 0x0 DUP2 SWAP1 POP SWAP2 SWAP1 POP JUMP JUMPDEST PUSH2 0x1AA DUP2 PUSH2 0x197 JUMP JUMPDEST DUP3 MSTORE POP POP JUMP JUMPDEST PUSH1 0x0 PUSH1 0x20 DUP3 ADD SWAP1 POP PUSH2 0x1C5 PUSH1 0x0 DUP4 ADD DUP5 PUSH2 0x1A1 JUMP JUMPDEST SWAP3 SWAP2 POP POP JUMP JUMPDEST PUSH1 0x0 DUP1 PUSH1 0x40 DUP4 DUP6 SUB SLT ISZERO PUSH2 0x1E2 JUMPI PUSH2 0x1E1 PUSH2 0x12F JUMP JUMPDEST JUMPDEST PUSH1 0x0 PUSH2 0x1F0 DUP6 DUP3 DUP7 ADD PUSH2 0x155 JUMP JUMPDEST SWAP3 POP POP PUSH1 0x20 PUSH2 0x201 DUP6 DUP3 DUP7 ADD PUSH2 0x155 JUMP JUMPDEST SWAP2 POP POP SWAP3 POP SWAP3 SWAP1 POP JUMP JUMPDEST PUSH2 0x214 DUP2 PUSH2 0x134 JUMP JUMPDEST DUP3 MSTORE POP POP JUMP JUMPDEST PUSH1 0x0 PUSH1 0x20 DUP3 ADD SWAP1 POP PUSH2 0x22F PUSH1 0x0 DUP4 ADD DUP5 PUSH2 0x20B JUMP JUMPDEST SWAP3 SWAP2 POP POP JUMP INVALID LOG2 PUSH5 0x6970667358 0x22 SLT KECCAK256 0x2D 0xBD CALLDATASIZE CREATE2 0xBF 0xF8 0xAF CHAINID 0xB3 LT 0x4C 0x28 DUP11 SWAP8 0xBF 0xC5 SLT 0xBF PUSH22 0xBE6077F0412F6A3C2A0554790264736F6C6343000811 STOP CALLER "
				},
				"gasEstimates": {
					"creation": {
						"codeDepositCost": "123800",
						"executionCost": "66489",
						"totalCost": "190289"
					},
					"external": {
						"getP()": "2503",
						"getVarYul(uint256)": "2680",
						"getX()": "2481",
						"setVarYul(uint256,uint256)": "infinite",
						"setX(uint256)": "22520"
					}
				},
				"methodIdentifiers": {
					"getP()": "5fa96654",
					"getVarYul(uint256)": "038e3574",
					"getX()": "5197c7aa",
					"setVarYul(uint256,uint256)": "4686a5b1",
					"setX(uint256)": "4018d9aa"
				}
			},
			"storageLayout": {
				"storage": [
					{
						"astId": 4,
						"contract": "StorageOne.sol:StorageBasics",
						"label": "x",
						"offset": 0,
						"slot": "0",
						"type": "t_uint256"
					},
					{
						"astId": 7,
						"contract": "StorageOne.sol:StorageBasics",
						"label": "y",
						"offset": 0,
						"slot": "1",
						"type": "t_uint256"
					},
					{
						"astId": 10,
						"contract": "StorageOne.sol:StorageBasics",
						"label": "z",
						"offset": 0,
						"slot": "2",
						"type": "t_uint256"
					},
					{
						"astId": 12,
						"contract": "StorageOne.sol:StorageBasics",
						"label": "p",
						"offset": 0,
						"slot": "3",
						"type": "t_uint256"
					}
				],
				"types": {
					"t_uint256": {
						"encoding": "inplace",
						"label": "uint256",
						"numberOfBytes": "32"
					}
				}
			},
			"userdoc": {
				"kind": "user",
				"methods": {},
				"version": 1
			}
		}
	}
}