{
	"YulTypes.sol": {
		"YulTypes": {
			"abi": [
				{
					"inputs": [],
					"name": "getHex",
					"outputs": [
						{
							"internalType": "uint256",
							"name": "x",
							"type": "uint256"
						}
					],
					"stateMutability": "pure",
					"type": "function"
				},
				{
					"inputs": [],
					"name": "getNumber",
					"outputs": [
						{
							"internalType": "uint256",
							"name": "x",
							"type": "uint256"
						}
					],
					"stateMutability": "pure",
					"type": "function"
				},
				{
					"inputs": [],
					"name": "getString",
					"outputs": [
						{
							"internalType": "string",
							"name": "x",
							"type": "string"
						}
					],
					"stateMutability": "pure",
					"type": "function"
				},
				{
					"inputs": [],
					"name": "getStringBytes",
					"outputs": [
						{
							"internalType": "bytes32",
							"name": "x",
							"type": "bytes32"
						}
					],
					"stateMutability": "pure",
					"type": "function"
				},
				{
					"inputs": [],
					"name": "representation",
					"outputs": [
						{
							"internalType": "address",
							"name": "x",
							"type": "address"
						}
					],
					"stateMutability": "pure",
					"type": "function"
				}
			],
			"devdoc": {
				"kind": "dev",
				"methods": {},
				"version": 1
			},
			"evm": {
				"assembly": "    /* \"YulTypes.sol\":60:923  contract YulTypes {... */\n  mstore(0x40, 0x80)\n  callvalue\n  dup1\n  iszero\n  tag_1\n  jumpi\n  0x00\n  dup1\n  revert\ntag_1:\n  pop\n  dataSize(sub_0)\n  dup1\n  dataOffset(sub_0)\n  0x00\n  codecopy\n  0x00\n  return\nstop\n\nsub_0: assembly {\n        /* \"YulTypes.sol\":60:923  contract YulTypes {... */\n      mstore(0x40, 0x80)\n      callvalue\n      dup1\n      iszero\n      tag_1\n      jumpi\n      0x00\n      dup1\n      revert\n    tag_1:\n      pop\n      jumpi(tag_2, lt(calldatasize, 0x04))\n      shr(0xe0, calldataload(0x00))\n      dup1\n      0x4d9dd966\n      eq\n      tag_3\n      jumpi\n      dup1\n      0x89ea642f\n      eq\n      tag_4\n      jumpi\n      dup1\n      0xf2c9ecd8\n      eq\n      tag_5\n      jumpi\n      dup1\n      0xf7dd3d07\n      eq\n      tag_6\n      jumpi\n      dup1\n      0xfb65da00\n      eq\n      tag_7\n      jumpi\n    tag_2:\n      0x00\n      dup1\n      revert\n        /* \"YulTypes.sol\":290:415  function getHex() external pure returns (uint256 x){... */\n    tag_3:\n      tag_8\n      tag_9\n      jump\t// in\n    tag_8:\n      mload(0x40)\n      tag_10\n      swap2\n      swap1\n      tag_11\n      jump\t// in\n    tag_10:\n      mload(0x40)\n      dup1\n      swap2\n      sub\n      swap1\n      return\n        /* \"YulTypes.sol\":588:770  function getString() external pure returns (string memory x) {... */\n    tag_4:\n      tag_12\n      tag_13\n      jump\t// in\n    tag_12:\n      mload(0x40)\n      tag_14\n      swap2\n      swap1\n      tag_15\n      jump\t// in\n    tag_14:\n      mload(0x40)\n      dup1\n      swap2\n      sub\n      swap1\n      return\n        /* \"YulTypes.sol\":157:284  function getNumber() external pure returns (uint256 x){... */\n    tag_5:\n      tag_16\n      tag_17\n      jump\t// in\n    tag_16:\n      mload(0x40)\n      tag_18\n      swap2\n      swap1\n      tag_11\n      jump\t// in\n    tag_18:\n      mload(0x40)\n      dup1\n      swap2\n      sub\n      swap1\n      return\n        /* \"YulTypes.sol\":776:919  function representation() external pure returns (address x) {... */\n    tag_6:\n      tag_19\n      tag_20\n      jump\t// in\n    tag_19:\n      mload(0x40)\n      tag_21\n      swap2\n      swap1\n      tag_22\n      jump\t// in\n    tag_21:\n      mload(0x40)\n      dup1\n      swap2\n      sub\n      swap1\n      return\n        /* \"YulTypes.sol\":421:582  function getStringBytes() external pure returns (bytes32 x) {... */\n    tag_7:\n      tag_23\n      tag_24\n      jump\t// in\n    tag_23:\n      mload(0x40)\n      tag_25\n      swap2\n      swap1\n      tag_26\n      jump\t// in\n    tag_25:\n      mload(0x40)\n      dup1\n      swap2\n      sub\n      swap1\n      return\n        /* \"YulTypes.sol\":290:415  function getHex() external pure returns (uint256 x){... */\n    tag_9:\n        /* \"YulTypes.sol\":331:340  uint256 x */\n      0x00\n        /* \"YulTypes.sol\":378:381  0xF */\n      0x0f\n        /* \"YulTypes.sol\":374:381  x:= 0xF */\n      swap1\n      pop\n        /* \"YulTypes.sol\":290:415  function getHex() external pure returns (uint256 x){... */\n      swap1\n      jump\t// out\n        /* \"YulTypes.sol\":588:770  function getString() external pure returns (string memory x) {... */\n    tag_13:\n        /* \"YulTypes.sol\":632:647  string memory x */\n      0x60\n        /* \"YulTypes.sol\":686:716  \"Lorem ipsum dolor set amet..\" */\n      0x4c6f72656d20697073756d20646f6c6f722073657420616d65742e2e00000000\n        /* \"YulTypes.sol\":682:716  x:= \"Lorem ipsum dolor set amet..\" */\n      swap1\n      pop\n        /* \"YulTypes.sol\":760:761  x */\n      dup1\n        /* \"YulTypes.sol\":749:762  abi.encode(x) */\n      add(0x20, mload(0x40))\n      tag_29\n      swap2\n      swap1\n      tag_15\n      jump\t// in\n    tag_29:\n      mload(0x40)\n      0x20\n      dup2\n      dup4\n      sub\n      sub\n      dup2\n      mstore\n      swap1\n      0x40\n      mstore\n        /* \"YulTypes.sol\":735:763  return string(abi.encode(x)) */\n      swap1\n      pop\n        /* \"YulTypes.sol\":588:770  function getString() external pure returns (string memory x) {... */\n      swap1\n      jump\t// out\n        /* \"YulTypes.sol\":157:284  function getNumber() external pure returns (uint256 x){... */\n    tag_17:\n        /* \"YulTypes.sol\":201:210  uint256 x */\n      0x00\n        /* \"YulTypes.sol\":248:250  42 */\n      0x2a\n        /* \"YulTypes.sol\":244:250  x:= 42 */\n      swap1\n      pop\n        /* \"YulTypes.sol\":157:284  function getNumber() external pure returns (uint256 x){... */\n      swap1\n      jump\t// out\n        /* \"YulTypes.sol\":776:919  function representation() external pure returns (address x) {... */\n    tag_20:\n        /* \"YulTypes.sol\":825:834  address x */\n      0x00\n        /* \"YulTypes.sol\":883:884  1 */\n      0x01\n        /* \"YulTypes.sol\":878:884  x := 1 */\n      swap1\n      pop\n        /* \"YulTypes.sol\":776:919  function representation() external pure returns (address x) {... */\n      swap1\n      jump\t// out\n        /* \"YulTypes.sol\":421:582  function getStringBytes() external pure returns (bytes32 x) {... */\n    tag_24:\n        /* \"YulTypes.sol\":470:479  bytes32 x */\n      0x00\n        /* \"YulTypes.sol\":518:548  \"Lorem ipsum dolor set amet..\" */\n      0x4c6f72656d20697073756d20646f6c6f722073657420616d65742e2e00000000\n        /* \"YulTypes.sol\":514:548  x:= \"Lorem ipsum dolor set amet..\" */\n      swap1\n      pop\n        /* \"YulTypes.sol\":421:582  function getStringBytes() external pure returns (bytes32 x) {... */\n      swap1\n      jump\t// out\n        /* \"#utility.yul\":7:84   */\n    tag_33:\n        /* \"#utility.yul\":44:51   */\n      0x00\n        /* \"#utility.yul\":73:78   */\n      dup2\n        /* \"#utility.yul\":62:78   */\n      swap1\n      pop\n        /* \"#utility.yul\":7:84   */\n      swap2\n      swap1\n      pop\n      jump\t// out\n        /* \"#utility.yul\":90:208   */\n    tag_34:\n        /* \"#utility.yul\":177:201   */\n      tag_48\n        /* \"#utility.yul\":195:200   */\n      dup2\n        /* \"#utility.yul\":177:201   */\n      tag_33\n      jump\t// in\n    tag_48:\n        /* \"#utility.yul\":172:175   */\n      dup3\n        /* \"#utility.yul\":165:202   */\n      mstore\n        /* \"#utility.yul\":90:208   */\n      pop\n      pop\n      jump\t// out\n        /* \"#utility.yul\":214:436   */\n    tag_11:\n        /* \"#utility.yul\":307:311   */\n      0x00\n        /* \"#utility.yul\":345:347   */\n      0x20\n        /* \"#utility.yul\":334:343   */\n      dup3\n        /* \"#utility.yul\":330:348   */\n      add\n        /* \"#utility.yul\":322:348   */\n      swap1\n      pop\n        /* \"#utility.yul\":358:429   */\n      tag_50\n        /* \"#utility.yul\":426:427   */\n      0x00\n        /* \"#utility.yul\":415:424   */\n      dup4\n        /* \"#utility.yul\":411:428   */\n      add\n        /* \"#utility.yul\":402:408   */\n      dup5\n        /* \"#utility.yul\":358:429   */\n      tag_34\n      jump\t// in\n    tag_50:\n        /* \"#utility.yul\":214:436   */\n      swap3\n      swap2\n      pop\n      pop\n      jump\t// out\n        /* \"#utility.yul\":442:541   */\n    tag_35:\n        /* \"#utility.yul\":494:500   */\n      0x00\n        /* \"#utility.yul\":528:533   */\n      dup2\n        /* \"#utility.yul\":522:534   */\n      mload\n        /* \"#utility.yul\":512:534   */\n      swap1\n      pop\n        /* \"#utility.yul\":442:541   */\n      swap2\n      swap1\n      pop\n      jump\t// out\n        /* \"#utility.yul\":547:716   */\n    tag_36:\n        /* \"#utility.yul\":631:642   */\n      0x00\n        /* \"#utility.yul\":665:671   */\n      dup3\n        /* \"#utility.yul\":660:663   */\n      dup3\n        /* \"#utility.yul\":653:672   */\n      mstore\n        /* \"#utility.yul\":705:709   */\n      0x20\n        /* \"#utility.yul\":700:703   */\n      dup3\n        /* \"#utility.yul\":696:710   */\n      add\n        /* \"#utility.yul\":681:710   */\n      swap1\n      pop\n        /* \"#utility.yul\":547:716   */\n      swap3\n      swap2\n      pop\n      pop\n      jump\t// out\n        /* \"#utility.yul\":722:968   */\n    tag_37:\n        /* \"#utility.yul\":803:804   */\n      0x00\n        /* \"#utility.yul\":813:926   */\n    tag_54:\n        /* \"#utility.yul\":827:833   */\n      dup4\n        /* \"#utility.yul\":824:825   */\n      dup2\n        /* \"#utility.yul\":821:834   */\n      lt\n        /* \"#utility.yul\":813:926   */\n      iszero\n      tag_56\n      jumpi\n        /* \"#utility.yul\":912:913   */\n      dup1\n        /* \"#utility.yul\":907:910   */\n      dup3\n        /* \"#utility.yul\":903:914   */\n      add\n        /* \"#utility.yul\":897:915   */\n      mload\n        /* \"#utility.yul\":893:894   */\n      dup2\n        /* \"#utility.yul\":888:891   */\n      dup5\n        /* \"#utility.yul\":884:895   */\n      add\n        /* \"#utility.yul\":877:916   */\n      mstore\n        /* \"#utility.yul\":849:851   */\n      0x20\n        /* \"#utility.yul\":846:847   */\n      dup2\n        /* \"#utility.yul\":842:852   */\n      add\n        /* \"#utility.yul\":837:852   */\n      swap1\n      pop\n        /* \"#utility.yul\":813:926   */\n      jump(tag_54)\n    tag_56:\n        /* \"#utility.yul\":960:961   */\n      0x00\n        /* \"#utility.yul\":951:957   */\n      dup5\n        /* \"#utility.yul\":946:949   */\n      dup5\n        /* \"#utility.yul\":942:958   */\n      add\n        /* \"#utility.yul\":935:962   */\n      mstore\n        /* \"#utility.yul\":784:968   */\n      pop\n        /* \"#utility.yul\":722:968   */\n      pop\n      pop\n      pop\n      jump\t// out\n        /* \"#utility.yul\":974:1076   */\n    tag_38:\n        /* \"#utility.yul\":1015:1021   */\n      0x00\n        /* \"#utility.yul\":1066:1068   */\n      0x1f\n        /* \"#utility.yul\":1062:1069   */\n      not\n        /* \"#utility.yul\":1057:1059   */\n      0x1f\n        /* \"#utility.yul\":1050:1055   */\n      dup4\n        /* \"#utility.yul\":1046:1060   */\n      add\n        /* \"#utility.yul\":1042:1070   */\n      and\n        /* \"#utility.yul\":1032:1070   */\n      swap1\n      pop\n        /* \"#utility.yul\":974:1076   */\n      swap2\n      swap1\n      pop\n      jump\t// out\n        /* \"#utility.yul\":1082:1459   */\n    tag_39:\n        /* \"#utility.yul\":1170:1173   */\n      0x00\n        /* \"#utility.yul\":1198:1237   */\n      tag_59\n        /* \"#utility.yul\":1231:1236   */\n      dup3\n        /* \"#utility.yul\":1198:1237   */\n      tag_35\n      jump\t// in\n    tag_59:\n        /* \"#utility.yul\":1253:1324   */\n      tag_60\n        /* \"#utility.yul\":1317:1323   */\n      dup2\n        /* \"#utility.yul\":1312:1315   */\n      dup6\n        /* \"#utility.yul\":1253:1324   */\n      tag_36\n      jump\t// in\n    tag_60:\n        /* \"#utility.yul\":1246:1324   */\n      swap4\n      pop\n        /* \"#utility.yul\":1333:1398   */\n      tag_61\n        /* \"#utility.yul\":1391:1397   */\n      dup2\n        /* \"#utility.yul\":1386:1389   */\n      dup6\n        /* \"#utility.yul\":1379:1383   */\n      0x20\n        /* \"#utility.yul\":1372:1377   */\n      dup7\n        /* \"#utility.yul\":1368:1384   */\n      add\n        /* \"#utility.yul\":1333:1398   */\n      tag_37\n      jump\t// in\n    tag_61:\n        /* \"#utility.yul\":1423:1452   */\n      tag_62\n        /* \"#utility.yul\":1445:1451   */\n      dup2\n        /* \"#utility.yul\":1423:1452   */\n      tag_38\n      jump\t// in\n    tag_62:\n        /* \"#utility.yul\":1418:1421   */\n      dup5\n        /* \"#utility.yul\":1414:1453   */\n      add\n        /* \"#utility.yul\":1407:1453   */\n      swap2\n      pop\n        /* \"#utility.yul\":1174:1459   */\n      pop\n        /* \"#utility.yul\":1082:1459   */\n      swap3\n      swap2\n      pop\n      pop\n      jump\t// out\n        /* \"#utility.yul\":1465:1778   */\n    tag_15:\n        /* \"#utility.yul\":1578:1582   */\n      0x00\n        /* \"#utility.yul\":1616:1618   */\n      0x20\n        /* \"#utility.yul\":1605:1614   */\n      dup3\n        /* \"#utility.yul\":1601:1619   */\n      add\n        /* \"#utility.yul\":1593:1619   */\n      swap1\n      pop\n        /* \"#utility.yul\":1665:1674   */\n      dup2\n        /* \"#utility.yul\":1659:1663   */\n      dup2\n        /* \"#utility.yul\":1655:1675   */\n      sub\n        /* \"#utility.yul\":1651:1652   */\n      0x00\n        /* \"#utility.yul\":1640:1649   */\n      dup4\n        /* \"#utility.yul\":1636:1653   */\n      add\n        /* \"#utility.yul\":1629:1676   */\n      mstore\n        /* \"#utility.yul\":1693:1771   */\n      tag_64\n        /* \"#utility.yul\":1766:1770   */\n      dup2\n        /* \"#utility.yul\":1757:1763   */\n      dup5\n        /* \"#utility.yul\":1693:1771   */\n      tag_39\n      jump\t// in\n    tag_64:\n        /* \"#utility.yul\":1685:1771   */\n      swap1\n      pop\n        /* \"#utility.yul\":1465:1778   */\n      swap3\n      swap2\n      pop\n      pop\n      jump\t// out\n        /* \"#utility.yul\":1784:1910   */\n    tag_40:\n        /* \"#utility.yul\":1821:1828   */\n      0x00\n        /* \"#utility.yul\":1861:1903   */\n      0xffffffffffffffffffffffffffffffffffffffff\n        /* \"#utility.yul\":1854:1859   */\n      dup3\n        /* \"#utility.yul\":1850:1904   */\n      and\n        /* \"#utility.yul\":1839:1904   */\n      swap1\n      pop\n        /* \"#utility.yul\":1784:1910   */\n      swap2\n      swap1\n      pop\n      jump\t// out\n        /* \"#utility.yul\":1916:2012   */\n    tag_41:\n        /* \"#utility.yul\":1953:1960   */\n      0x00\n        /* \"#utility.yul\":1982:2006   */\n      tag_67\n        /* \"#utility.yul\":2000:2005   */\n      dup3\n        /* \"#utility.yul\":1982:2006   */\n      tag_40\n      jump\t// in\n    tag_67:\n        /* \"#utility.yul\":1971:2006   */\n      swap1\n      pop\n        /* \"#utility.yul\":1916:2012   */\n      swap2\n      swap1\n      pop\n      jump\t// out\n        /* \"#utility.yul\":2018:2136   */\n    tag_42:\n        /* \"#utility.yul\":2105:2129   */\n      tag_69\n        /* \"#utility.yul\":2123:2128   */\n      dup2\n        /* \"#utility.yul\":2105:2129   */\n      tag_41\n      jump\t// in\n    tag_69:\n        /* \"#utility.yul\":2100:2103   */\n      dup3\n        /* \"#utility.yul\":2093:2130   */\n      mstore\n        /* \"#utility.yul\":2018:2136   */\n      pop\n      pop\n      jump\t// out\n        /* \"#utility.yul\":2142:2364   */\n    tag_22:\n        /* \"#utility.yul\":2235:2239   */\n      0x00\n        /* \"#utility.yul\":2273:2275   */\n      0x20\n        /* \"#utility.yul\":2262:2271   */\n      dup3\n        /* \"#utility.yul\":2258:2276   */\n      add\n        /* \"#utility.yul\":2250:2276   */\n      swap1\n      pop\n        /* \"#utility.yul\":2286:2357   */\n      tag_71\n        /* \"#utility.yul\":2354:2355   */\n      0x00\n        /* \"#utility.yul\":2343:2352   */\n      dup4\n        /* \"#utility.yul\":2339:2356   */\n      add\n        /* \"#utility.yul\":2330:2336   */\n      dup5\n        /* \"#utility.yul\":2286:2357   */\n      tag_42\n      jump\t// in\n    tag_71:\n        /* \"#utility.yul\":2142:2364   */\n      swap3\n      swap2\n      pop\n      pop\n      jump\t// out\n        /* \"#utility.yul\":2370:2447   */\n    tag_43:\n        /* \"#utility.yul\":2407:2414   */\n      0x00\n        /* \"#utility.yul\":2436:2441   */\n      dup2\n        /* \"#utility.yul\":2425:2441   */\n      swap1\n      pop\n        /* \"#utility.yul\":2370:2447   */\n      swap2\n      swap1\n      pop\n      jump\t// out\n        /* \"#utility.yul\":2453:2571   */\n    tag_44:\n        /* \"#utility.yul\":2540:2564   */\n      tag_74\n        /* \"#utility.yul\":2558:2563   */\n      dup2\n        /* \"#utility.yul\":2540:2564   */\n      tag_43\n      jump\t// in\n    tag_74:\n        /* \"#utility.yul\":2535:2538   */\n      dup3\n        /* \"#utility.yul\":2528:2565   */\n      mstore\n        /* \"#utility.yul\":2453:2571   */\n      pop\n      pop\n      jump\t// out\n        /* \"#utility.yul\":2577:2799   */\n    tag_26:\n        /* \"#utility.yul\":2670:2674   */\n      0x00\n        /* \"#utility.yul\":2708:2710   */\n      0x20\n        /* \"#utility.yul\":2697:2706   */\n      dup3\n        /* \"#utility.yul\":2693:2711   */\n      add\n        /* \"#utility.yul\":2685:2711   */\n      swap1\n      pop\n        /* \"#utility.yul\":2721:2792   */\n      tag_76\n        /* \"#utility.yul\":2789:2790   */\n      0x00\n        /* \"#utility.yul\":2778:2787   */\n      dup4\n        /* \"#utility.yul\":2774:2791   */\n      add\n        /* \"#utility.yul\":2765:2771   */\n      dup5\n        /* \"#utility.yul\":2721:2792   */\n      tag_44\n      jump\t// in\n    tag_76:\n        /* \"#utility.yul\":2577:2799   */\n      swap3\n      swap2\n      pop\n      pop\n      jump\t// out\n\n    auxdata: 0xa2646970667358221220a31f4d0570df8dd8f223923690ae99d4886837f0b0100faa055b9227f385909264736f6c63430008110033\n}\n",
				"bytecode": {
					"linkReferences": {},
					"object": "608060405234801561001057600080fd5b5061032b806100206000396000f3fe608060405234801561001057600080fd5b50600436106100575760003560e01c80634d9dd9661461005c57806389ea642f1461007a578063f2c9ecd814610098578063f7dd3d07146100b6578063fb65da00146100d4575b600080fd5b6100646100f2565b6040516100719190610198565b60405180910390f35b6100826100fb565b60405161008f9190610243565b60405180910390f35b6100a0610145565b6040516100ad9190610198565b60405180910390f35b6100be61014e565b6040516100cb91906102a6565b60405180910390f35b6100dc610157565b6040516100e991906102da565b60405180910390f35b6000600f905090565b60607f4c6f72656d20697073756d20646f6c6f722073657420616d65742e2e000000009050806040516020016101319190610243565b604051602081830303815290604052905090565b6000602a905090565b60006001905090565b60007f4c6f72656d20697073756d20646f6c6f722073657420616d65742e2e00000000905090565b6000819050919050565b6101928161017f565b82525050565b60006020820190506101ad6000830184610189565b92915050565b600081519050919050565b600082825260208201905092915050565b60005b838110156101ed5780820151818401526020810190506101d2565b60008484015250505050565b6000601f19601f8301169050919050565b6000610215826101b3565b61021f81856101be565b935061022f8185602086016101cf565b610238816101f9565b840191505092915050565b6000602082019050818103600083015261025d818461020a565b905092915050565b600073ffffffffffffffffffffffffffffffffffffffff82169050919050565b600061029082610265565b9050919050565b6102a081610285565b82525050565b60006020820190506102bb6000830184610297565b92915050565b6000819050919050565b6102d4816102c1565b82525050565b60006020820190506102ef60008301846102cb565b9291505056fea2646970667358221220a31f4d0570df8dd8f223923690ae99d4886837f0b0100faa055b9227f385909264736f6c63430008110033",
					"opcodes": "PUSH1 0x80 PUSH1 0x40 MSTORE CALLVALUE DUP1 ISZERO PUSH2 0x10 JUMPI PUSH1 0x0 DUP1 REVERT JUMPDEST POP PUSH2 0x32B DUP1 PUSH2 0x20 PUSH1 0x0 CODECOPY PUSH1 0x0 RETURN INVALID PUSH1 0x80 PUSH1 0x40 MSTORE CALLVALUE DUP1 ISZERO PUSH2 0x10 JUMPI PUSH1 0x0 DUP1 REVERT JUMPDEST POP PUSH1 0x4 CALLDATASIZE LT PUSH2 0x57 JUMPI PUSH1 0x0 CALLDATALOAD PUSH1 0xE0 SHR DUP1 PUSH4 0x4D9DD966 EQ PUSH2 0x5C JUMPI DUP1 PUSH4 0x89EA642F EQ PUSH2 0x7A JUMPI DUP1 PUSH4 0xF2C9ECD8 EQ PUSH2 0x98 JUMPI DUP1 PUSH4 0xF7DD3D07 EQ PUSH2 0xB6 JUMPI DUP1 PUSH4 0xFB65DA00 EQ PUSH2 0xD4 JUMPI JUMPDEST PUSH1 0x0 DUP1 REVERT JUMPDEST PUSH2 0x64 PUSH2 0xF2 JUMP JUMPDEST PUSH1 0x40 MLOAD PUSH2 0x71 SWAP2 SWAP1 PUSH2 0x198 JUMP JUMPDEST PUSH1 0x40 MLOAD DUP1 SWAP2 SUB SWAP1 RETURN JUMPDEST PUSH2 0x82 PUSH2 0xFB JUMP JUMPDEST PUSH1 0x40 MLOAD PUSH2 0x8F SWAP2 SWAP1 PUSH2 0x243 JUMP JUMPDEST PUSH1 0x40 MLOAD DUP1 SWAP2 SUB SWAP1 RETURN JUMPDEST PUSH2 0xA0 PUSH2 0x145 JUMP JUMPDEST PUSH1 0x40 MLOAD PUSH2 0xAD SWAP2 SWAP1 PUSH2 0x198 JUMP JUMPDEST PUSH1 0x40 MLOAD DUP1 SWAP2 SUB SWAP1 RETURN JUMPDEST PUSH2 0xBE PUSH2 0x14E JUMP JUMPDEST PUSH1 0x40 MLOAD PUSH2 0xCB SWAP2 SWAP1 PUSH2 0x2A6 JUMP JUMPDEST PUSH1 0x40 MLOAD DUP1 SWAP2 SUB SWAP1 RETURN JUMPDEST PUSH2 0xDC PUSH2 0x157 JUMP JUMPDEST PUSH1 0x40 MLOAD PUSH2 0xE9 SWAP2 SWAP1 PUSH2 0x2DA JUMP JUMPDEST PUSH1 0x40 MLOAD DUP1 SWAP2 SUB SWAP1 RETURN JUMPDEST PUSH1 0x0 PUSH1 0xF SWAP1 POP SWAP1 JUMP JUMPDEST PUSH1 0x60 PUSH32 0x4C6F72656D20697073756D20646F6C6F722073657420616D65742E2E00000000 SWAP1 POP DUP1 PUSH1 0x40 MLOAD PUSH1 0x20 ADD PUSH2 0x131 SWAP2 SWAP1 PUSH2 0x243 JUMP JUMPDEST PUSH1 0x40 MLOAD PUSH1 0x20 DUP2 DUP4 SUB SUB DUP2 MSTORE SWAP1 PUSH1 0x40 MSTORE SWAP1 POP SWAP1 JUMP JUMPDEST PUSH1 0x0 PUSH1 0x2A SWAP1 POP SWAP1 JUMP JUMPDEST PUSH1 0x0 PUSH1 0x1 SWAP1 POP SWAP1 JUMP JUMPDEST PUSH1 0x0 PUSH32 0x4C6F72656D20697073756D20646F6C6F722073657420616D65742E2E00000000 SWAP1 POP SWAP1 JUMP JUMPDEST PUSH1 0x0 DUP2 SWAP1 POP SWAP2 SWAP1 POP JUMP JUMPDEST PUSH2 0x192 DUP2 PUSH2 0x17F JUMP JUMPDEST DUP3 MSTORE POP POP JUMP JUMPDEST PUSH1 0x0 PUSH1 0x20 DUP3 ADD SWAP1 POP PUSH2 0x1AD PUSH1 0x0 DUP4 ADD DUP5 PUSH2 0x189 JUMP JUMPDEST SWAP3 SWAP2 POP POP JUMP JUMPDEST PUSH1 0x0 DUP2 MLOAD SWAP1 POP SWAP2 SWAP1 POP JUMP JUMPDEST PUSH1 0x0 DUP3 DUP3 MSTORE PUSH1 0x20 DUP3 ADD SWAP1 POP SWAP3 SWAP2 POP POP JUMP JUMPDEST PUSH1 0x0 JUMPDEST DUP4 DUP2 LT ISZERO PUSH2 0x1ED JUMPI DUP1 DUP3 ADD MLOAD DUP2 DUP5 ADD MSTORE PUSH1 0x20 DUP2 ADD SWAP1 POP PUSH2 0x1D2 JUMP JUMPDEST PUSH1 0x0 DUP5 DUP5 ADD MSTORE POP POP POP POP JUMP JUMPDEST PUSH1 0x0 PUSH1 0x1F NOT PUSH1 0x1F DUP4 ADD AND SWAP1 POP SWAP2 SWAP1 POP JUMP JUMPDEST PUSH1 0x0 PUSH2 0x215 DUP3 PUSH2 0x1B3 JUMP JUMPDEST PUSH2 0x21F DUP2 DUP6 PUSH2 0x1BE JUMP JUMPDEST SWAP4 POP PUSH2 0x22F DUP2 DUP6 PUSH1 0x20 DUP7 ADD PUSH2 0x1CF JUMP JUMPDEST PUSH2 0x238 DUP2 PUSH2 0x1F9 JUMP JUMPDEST DUP5 ADD SWAP2 POP POP SWAP3 SWAP2 POP POP JUMP JUMPDEST PUSH1 0x0 PUSH1 0x20 DUP3 ADD SWAP1 POP DUP2 DUP2 SUB PUSH1 0x0 DUP4 ADD MSTORE PUSH2 0x25D DUP2 DUP5 PUSH2 0x20A JUMP JUMPDEST SWAP1 POP SWAP3 SWAP2 POP POP JUMP JUMPDEST PUSH1 0x0 PUSH20 0xFFFFFFFFFFFFFFFFFFFFFFFFFFFFFFFFFFFFFFFF DUP3 AND SWAP1 POP SWAP2 SWAP1 POP JUMP JUMPDEST PUSH1 0x0 PUSH2 0x290 DUP3 PUSH2 0x265 JUMP JUMPDEST SWAP1 POP SWAP2 SWAP1 POP JUMP JUMPDEST PUSH2 0x2A0 DUP2 PUSH2 0x285 JUMP JUMPDEST DUP3 MSTORE POP POP JUMP JUMPDEST PUSH1 0x0 PUSH1 0x20 DUP3 ADD SWAP1 POP PUSH2 0x2BB PUSH1 0x0 DUP4 ADD DUP5 PUSH2 0x297 JUMP JUMPDEST SWAP3 SWAP2 POP POP JUMP JUMPDEST PUSH1 0x0 DUP2 SWAP1 POP SWAP2 SWAP1 POP JUMP JUMPDEST PUSH2 0x2D4 DUP2 PUSH2 0x2C1 JUMP JUMPDEST DUP3 MSTORE POP POP JUMP JUMPDEST PUSH1 0x0 PUSH1 0x20 DUP3 ADD SWAP1 POP PUSH2 0x2EF PUSH1 0x0 DUP4 ADD DUP5 PUSH2 0x2CB JUMP JUMPDEST SWAP3 SWAP2 POP POP JUMP INVALID LOG2 PUSH5 0x6970667358 0x22 SLT KECCAK256 LOG3 0x1F 0x4D SDIV PUSH17 0xDF8DD8F223923690AE99D4886837F0B010 0xF 0xAA SDIV JUMPDEST SWAP3 0x27 RETURN DUP6 SWAP1 SWAP3 PUSH5 0x736F6C6343 STOP ADDMOD GT STOP CALLER "
				},
				"gasEstimates": {
					"creation": {
						"codeDepositCost": "162200",
						"executionCost": "208",
						"totalCost": "162408"
					},
					"external": {
						"getHex()": "315",
						"getNumber()": "359",
						"getString()": "infinite",
						"getStringBytes()": "403",
						"representation()": "430"
					}
				},
				"methodIdentifiers": {
					"getHex()": "4d9dd966",
					"getNumber()": "f2c9ecd8",
					"getString()": "89ea642f",
					"getStringBytes()": "fb65da00",
					"representation()": "f7dd3d07"
				}
			},
			"storageLayout": {
				"storage": [],
				"types": null
			},
			"userdoc": {
				"kind": "user",
				"methods": {},
				"version": 1
			}
		}
	}
}